{
  "contractName": "ZoomBridge",
  "abi": [
    {
      "inputs": [
        {
          "internalType": "address",
          "name": "_zoomContract",
          "type": "address"
        }
      ],
      "stateMutability": "nonpayable",
      "type": "constructor"
    },
    {
      "anonymous": false,
      "inputs": [
        {
          "indexed": true,
          "internalType": "address",
          "name": "previousOwner",
          "type": "address"
        },
        {
          "indexed": true,
          "internalType": "address",
          "name": "newOwner",
          "type": "address"
        }
      ],
      "name": "OwnershipTransferred",
      "type": "event"
    },
    {
      "anonymous": false,
      "inputs": [
        {
          "indexed": false,
          "internalType": "address",
          "name": "account",
          "type": "address"
        }
      ],
      "name": "Paused",
      "type": "event"
    },
    {
      "anonymous": false,
      "inputs": [
        {
          "indexed": false,
          "internalType": "address",
          "name": "account",
          "type": "address"
        }
      ],
      "name": "Unpaused",
      "type": "event"
    },
    {
      "anonymous": false,
      "inputs": [
        {
          "indexed": false,
          "internalType": "uint256",
          "name": "zoomAmount",
          "type": "uint256"
        },
        {
          "indexed": false,
          "internalType": "string",
          "name": "playerUUID",
          "type": "string"
        }
      ],
      "name": "zoomBridged",
      "type": "event"
    },
    {
      "inputs": [],
      "name": "owner",
      "outputs": [
        {
          "internalType": "address",
          "name": "",
          "type": "address"
        }
      ],
      "stateMutability": "view",
      "type": "function"
    },
    {
      "inputs": [],
      "name": "paused",
      "outputs": [
        {
          "internalType": "bool",
          "name": "",
          "type": "bool"
        }
      ],
      "stateMutability": "view",
      "type": "function"
    },
    {
      "inputs": [],
      "name": "renounceOwnership",
      "outputs": [],
      "stateMutability": "nonpayable",
      "type": "function"
    },
    {
      "inputs": [
        {
          "internalType": "address",
          "name": "newOwner",
          "type": "address"
        }
      ],
      "name": "transferOwnership",
      "outputs": [],
      "stateMutability": "nonpayable",
      "type": "function"
    },
    {
      "inputs": [],
      "name": "zoomContract",
      "outputs": [
        {
          "internalType": "address",
          "name": "",
          "type": "address"
        }
      ],
      "stateMutability": "view",
      "type": "function"
    },
    {
      "inputs": [],
      "name": "zoomRate",
      "outputs": [
        {
          "internalType": "uint256",
          "name": "",
          "type": "uint256"
        }
      ],
      "stateMutability": "view",
      "type": "function"
    },
    {
      "inputs": [],
      "name": "pause",
      "outputs": [],
      "stateMutability": "nonpayable",
      "type": "function"
    },
    {
      "inputs": [],
      "name": "unpause",
      "outputs": [],
      "stateMutability": "nonpayable",
      "type": "function"
    },
    {
      "inputs": [
        {
          "internalType": "address",
          "name": "_zoomContract",
          "type": "address"
        }
      ],
      "name": "setZoomContract",
      "outputs": [],
      "stateMutability": "nonpayable",
      "type": "function"
    },
    {
      "inputs": [
        {
          "internalType": "uint256",
          "name": "_zoomRate",
          "type": "uint256"
        }
      ],
      "name": "setZoomRate",
      "outputs": [],
      "stateMutability": "nonpayable",
      "type": "function"
    },
    {
      "inputs": [
        {
          "internalType": "string",
          "name": "_player",
          "type": "string"
        }
      ],
      "name": "buyZoomCredits",
      "outputs": [],
      "stateMutability": "payable",
      "type": "function"
    },
    {
      "inputs": [
        {
          "internalType": "string",
          "name": "_player",
          "type": "string"
        },
        {
          "internalType": "uint256",
          "name": "_amount",
          "type": "uint256"
        }
      ],
      "name": "bridgeZoom",
      "outputs": [],
      "stateMutability": "nonpayable",
      "type": "function"
    },
    {
      "inputs": [
        {
          "internalType": "uint256",
          "name": "valueInWei",
          "type": "uint256"
        }
      ],
      "name": "isWholeNumber",
      "outputs": [
        {
          "internalType": "bool",
          "name": "",
          "type": "bool"
        }
      ],
      "stateMutability": "pure",
      "type": "function"
    }
  ],
  "bytecode": "0x6080604052620186a060025534801561001757600080fd5b50604051610bce380380610bce833981016040819052610036916100c1565b61003f33610071565b6000805460ff60a01b19169055600180546001600160a01b0319166001600160a01b03929092169190911790556100f1565b600080546001600160a01b038381166001600160a01b0319831681178455604051919092169283917f8be0079c531659141344cd1fd0a4f28419497f9722a3daafe3b4186f6b6457e09190a35050565b6000602082840312156100d357600080fd5b81516001600160a01b03811681146100ea57600080fd5b9392505050565b610ace806101006000396000f3fe6080604052600436106100c25760003560e01c80638da5cb5b1161007f578063ec53000f11610059578063ec53000f146101e1578063f2fde38b14610201578063f92d29ae14610221578063fdd84a4c1461024557600080fd5b80638da5cb5b1461018357806394e64c6d146101a1578063bd147f02146101c157600080fd5b806312d2d1e0146100c75780633f4ba83a146100dc5780635c975abb146100f1578063715018a61461012157806376673ae0146101365780638456cb591461016e575b600080fd5b6100da6100d5366004610921565b610265565b005b3480156100e857600080fd5b506100da6103bd565b3480156100fd57600080fd5b50600054600160a01b900460ff165b60405190151581526020015b60405180910390f35b34801561012d57600080fd5b506100da6103cf565b34801561014257600080fd5b50600154610156906001600160a01b031681565b6040516001600160a01b039091168152602001610118565b34801561017a57600080fd5b506100da6103e1565b34801561018f57600080fd5b506000546001600160a01b0316610156565b3480156101ad57600080fd5b506100da6101bc36600461095e565b6103f1565b3480156101cd57600080fd5b5061010c6101dc36600461095e565b61044e565b3480156101ed57600080fd5b506100da6101fc366004610977565b610469565b34801561020d57600080fd5b506100da61021c3660046109bc565b6105fc565b34801561022d57600080fd5b5061023760025481565b604051908152602001610118565b34801561025157600080fd5b506100da6102603660046109bc565b610675565b61026d61069f565b6509184e72a00034116102d25760405162461bcd60e51b815260206004820152602260248201527f416d6f756e74206d75737420626520686967686572207468616e20302e303030604482015261303160f01b60648201526084015b60405180910390fd5b80516024146103235760405162461bcd60e51b815260206004820152601b60248201527f506c61796572206d75737420626520612076616c69642055554944000000000060448201526064016102c9565b60006002543461033391906109ec565b90506103476000546001600160a01b031690565b6001600160a01b03166108fc349081150290604051600060405180830381858888f1935050505015801561037f573d6000803e3d6000fd5b507fd6a37e940532a6452ea1cc2a1b5db8f749d00c484846d1142424991a6e2dcbd781836040516103b1929190610a19565b60405180910390a15050565b6103c56106ec565b6103cd610746565b565b6103d76106ec565b6103cd600061079b565b6103e96106ec565b6103cd6107eb565b6103f96106ec565b600081116104495760405162461bcd60e51b815260206004820152601b60248201527f52617465206d7573742062652067726561746572207468616e2030000000000060448201526064016102c9565b600255565b6000610462670de0b6b3a764000083610a76565b1592915050565b61047161069f565b600081116104c15760405162461bcd60e51b815260206004820152601d60248201527f416d6f756e74206d7573742062652067726561746572207468616e203000000060448201526064016102c9565b6104ca8161044e565b6105165760405162461bcd60e51b815260206004820152601960248201527f416d6f756e742063616e6e6f7420626520646563696d616c730000000000000060448201526064016102c9565b81516024146105675760405162461bcd60e51b815260206004820152601b60248201527f506c61796572206d75737420626520612076616c69642055554944000000000060448201526064016102c9565b600154604051631b7606eb60e11b8152336004820152602481018390526001600160a01b03909116906336ec0dd690604401600060405180830381600087803b1580156105b357600080fd5b505af11580156105c7573d6000803e3d6000fd5b505050507fd6a37e940532a6452ea1cc2a1b5db8f749d00c484846d1142424991a6e2dcbd781836040516103b1929190610a19565b6106046106ec565b6001600160a01b0381166106695760405162461bcd60e51b815260206004820152602660248201527f4f776e61626c653a206e6577206f776e657220697320746865207a65726f206160448201526564647265737360d01b60648201526084016102c9565b6106728161079b565b50565b61067d6106ec565b600180546001600160a01b0319166001600160a01b0392909216919091179055565b600054600160a01b900460ff16156103cd5760405162461bcd60e51b815260206004820152601060248201526f14185d5cd8589b194e881c185d5cd95960821b60448201526064016102c9565b6000546001600160a01b031633146103cd5760405162461bcd60e51b815260206004820181905260248201527f4f776e61626c653a2063616c6c6572206973206e6f7420746865206f776e657260448201526064016102c9565b61074e61082e565b6000805460ff60a01b191690557f5db9ee0a495bf2e6ff9c91a7834c1ba4fdd244a5e8aa4e537bd38aeae4b073aa335b6040516001600160a01b03909116815260200160405180910390a1565b600080546001600160a01b038381166001600160a01b0319831681178455604051919092169283917f8be0079c531659141344cd1fd0a4f28419497f9722a3daafe3b4186f6b6457e09190a35050565b6107f361069f565b6000805460ff60a01b1916600160a01b1790557f62e78cea01bee320cd4e420270b5ea74000d11b0c9f74754ebdbfc544b05a25861077e3390565b600054600160a01b900460ff166103cd5760405162461bcd60e51b815260206004820152601460248201527314185d5cd8589b194e881b9bdd081c185d5cd95960621b60448201526064016102c9565b634e487b7160e01b600052604160045260246000fd5b600082601f8301126108a557600080fd5b813567ffffffffffffffff808211156108c0576108c061087e565b604051601f8301601f19908116603f011681019082821181831017156108e8576108e861087e565b8160405283815286602085880101111561090157600080fd5b836020870160208301376000602085830101528094505050505092915050565b60006020828403121561093357600080fd5b813567ffffffffffffffff81111561094a57600080fd5b61095684828501610894565b949350505050565b60006020828403121561097057600080fd5b5035919050565b6000806040838503121561098a57600080fd5b823567ffffffffffffffff8111156109a157600080fd5b6109ad85828601610894565b95602094909401359450505050565b6000602082840312156109ce57600080fd5b81356001600160a01b03811681146109e557600080fd5b9392505050565b6000816000190483118215151615610a1457634e487b7160e01b600052601160045260246000fd5b500290565b82815260006020604081840152835180604085015260005b81811015610a4d57858101830151858201606001528201610a31565b81811115610a5f576000606083870101525b50601f01601f191692909201606001949350505050565b600082610a9357634e487b7160e01b600052601260045260246000fd5b50069056fea2646970667358221220ce5d8ec27cb31fe65fcbb0fb65b798cb09a729000d273eac42e01b21db32655c64736f6c63430008090033",
  "immutableReferences": {},
  "source": "// SPDX-License-Identifier: MIT\npragma solidity 0.8.9;\n\n/*\n  ZOOM to Game world bridge\n  Copyright 2023 Cardinal Entertainment 1000011333 Ontario Inc.\n*/\n\nimport \"./ZoomToken.sol\";\n\ncontract ZoomBridge is Ownable, Pausable {\n\n    address public zoomContract;\n    uint256 public zoomRate = 100000;\n\n    event zoomBridged(\n        uint256 zoomAmount,\n        string playerUUID\n    );\n\n    constructor(address _zoomContract) {\n        zoomContract = _zoomContract;\n    }\n\n    function pause() public onlyOwner {\n        _pause();\n    }\n\n    function unpause() public onlyOwner {\n        _unpause();\n    }\n\n    function setZoomContract(address _zoomContract) external onlyOwner {\n        zoomContract = _zoomContract;\n    }\n\n    function setZoomRate(uint256 _zoomRate) external onlyOwner {\n        require(_zoomRate > 0, \"Rate must be greater than 0\");\n        zoomRate = _zoomRate;\n    }\n\n    //Buy Zoom credits with GLMR, transfer the GLMR to the owner\n    function buyZoomCredits(string memory _player) whenNotPaused external payable {\n        require(msg.value > 0.00001 ether, \"Amount must be higher than 0.00001\");\n        require(bytes(_player).length == 36, \"Player must be a valid UUID\");\n        uint256 zoomAmount = msg.value * zoomRate;\n        payable(owner()).transfer(msg.value);\n        emit zoomBridged(zoomAmount, _player);\n    }\n\n    // Bridge function to burn ZOOM tokens and mint in game currency\n    function bridgeZoom(string memory _player, uint256 _amount) whenNotPaused external {\n        require(_amount > 0 , \"Amount must be greater than 0\");\n        require(isWholeNumber(_amount), \"Amount cannot be decimals\");\n        require(bytes(_player).length == 36, \"Player must be a valid UUID\");\n        ZoomToken(zoomContract).burnZoom(msg.sender, _amount); //burn the tokens\n        emit zoomBridged(_amount, _player);\n    }\n\n    // Helper function to check if the provided value (in wei) is a whole number in ethers\n    function isWholeNumber(uint256 valueInWei) public pure returns (bool) {\n        return valueInWei % 1 ether == 0;\n    }\n}",
  "sourcePath": "/Users/ryanprice/MyApplications/Solidity/Zoombies/contracts/Zoombridge.sol",
  "compiler": {
    "name": "solc",
    "version": "0.8.9+commit.e5eed63a.Emscripten.clang"
  },
  "schemaVersion": "3.4.13",
  "updatedAt": "2023-09-20T02:33:12.704Z",
  "devdoc": {
    "kind": "dev",
    "methods": {
      "owner()": {
        "details": "Returns the address of the current owner."
      },
      "paused()": {
        "details": "Returns true if the contract is paused, and false otherwise."
      },
      "renounceOwnership()": {
        "details": "Leaves the contract without owner. It will not be possible to call `onlyOwner` functions anymore. Can only be called by the current owner. NOTE: Renouncing ownership will leave the contract without an owner, thereby removing any functionality that is only available to the owner."
      },
      "transferOwnership(address)": {
        "details": "Transfers ownership of the contract to a new account (`newOwner`). Can only be called by the current owner."
      }
    },
    "version": 1
  },
  "userdoc": {
    "kind": "user",
    "methods": {},
    "version": 1
  }
}