{
  "contractName": "ZoomToken",
  "abi": [
    {
      "inputs": [],
      "stateMutability": "nonpayable",
      "type": "constructor"
    },
    {
      "anonymous": false,
      "inputs": [
        {
          "indexed": true,
          "internalType": "address",
          "name": "owner",
          "type": "address"
        },
        {
          "indexed": true,
          "internalType": "address",
          "name": "spender",
          "type": "address"
        },
        {
          "indexed": false,
          "internalType": "uint256",
          "name": "value",
          "type": "uint256"
        }
      ],
      "name": "Approval",
      "type": "event"
    },
    {
      "anonymous": false,
      "inputs": [
        {
          "indexed": true,
          "internalType": "address",
          "name": "previousOwner",
          "type": "address"
        },
        {
          "indexed": true,
          "internalType": "address",
          "name": "newOwner",
          "type": "address"
        }
      ],
      "name": "OwnershipTransferred",
      "type": "event"
    },
    {
      "anonymous": false,
      "inputs": [
        {
          "indexed": false,
          "internalType": "address",
          "name": "account",
          "type": "address"
        }
      ],
      "name": "Paused",
      "type": "event"
    },
    {
      "anonymous": false,
      "inputs": [
        {
          "indexed": false,
          "internalType": "bool",
          "name": "isTGEClosed",
          "type": "bool"
        }
      ],
      "name": "TGEClosed",
      "type": "event"
    },
    {
      "anonymous": false,
      "inputs": [
        {
          "indexed": true,
          "internalType": "address",
          "name": "from",
          "type": "address"
        },
        {
          "indexed": true,
          "internalType": "address",
          "name": "to",
          "type": "address"
        },
        {
          "indexed": false,
          "internalType": "uint256",
          "name": "value",
          "type": "uint256"
        }
      ],
      "name": "Transfer",
      "type": "event"
    },
    {
      "anonymous": false,
      "inputs": [
        {
          "indexed": false,
          "internalType": "address",
          "name": "account",
          "type": "address"
        }
      ],
      "name": "Unpaused",
      "type": "event"
    },
    {
      "anonymous": false,
      "inputs": [
        {
          "indexed": false,
          "internalType": "address",
          "name": "newZoombiesService",
          "type": "address"
        },
        {
          "indexed": false,
          "internalType": "bool",
          "name": "isApproved",
          "type": "bool"
        }
      ],
      "name": "contractAuthorized",
      "type": "event"
    },
    {
      "anonymous": false,
      "inputs": [
        {
          "indexed": false,
          "internalType": "address",
          "name": "owner",
          "type": "address"
        },
        {
          "indexed": false,
          "internalType": "uint256",
          "name": "totalZoomBurned",
          "type": "uint256"
        },
        {
          "indexed": false,
          "internalType": "uint256",
          "name": "amount",
          "type": "uint256"
        }
      ],
      "name": "zoomBurned",
      "type": "event"
    },
    {
      "anonymous": false,
      "inputs": [
        {
          "indexed": false,
          "internalType": "address",
          "name": "contributor",
          "type": "address"
        },
        {
          "indexed": false,
          "internalType": "uint256",
          "name": "ZoomScore",
          "type": "uint256"
        },
        {
          "indexed": false,
          "internalType": "uint256",
          "name": "amount",
          "type": "uint256"
        }
      ],
      "name": "zoomContribution",
      "type": "event"
    },
    {
      "anonymous": false,
      "inputs": [
        {
          "indexed": false,
          "internalType": "address",
          "name": "owner",
          "type": "address"
        },
        {
          "indexed": false,
          "internalType": "uint256",
          "name": "newZoomScore",
          "type": "uint256"
        },
        {
          "indexed": false,
          "internalType": "uint256",
          "name": "amount",
          "type": "uint256"
        }
      ],
      "name": "zoomScoreUpdated",
      "type": "event"
    },
    {
      "inputs": [],
      "name": "DOMAIN_SEPARATOR",
      "outputs": [
        {
          "internalType": "bytes32",
          "name": "",
          "type": "bytes32"
        }
      ],
      "stateMutability": "view",
      "type": "function"
    },
    {
      "inputs": [
        {
          "internalType": "address",
          "name": "owner",
          "type": "address"
        },
        {
          "internalType": "address",
          "name": "spender",
          "type": "address"
        }
      ],
      "name": "allowance",
      "outputs": [
        {
          "internalType": "uint256",
          "name": "",
          "type": "uint256"
        }
      ],
      "stateMutability": "view",
      "type": "function"
    },
    {
      "inputs": [
        {
          "internalType": "address",
          "name": "spender",
          "type": "address"
        },
        {
          "internalType": "uint256",
          "name": "amount",
          "type": "uint256"
        }
      ],
      "name": "approve",
      "outputs": [
        {
          "internalType": "bool",
          "name": "",
          "type": "bool"
        }
      ],
      "stateMutability": "nonpayable",
      "type": "function"
    },
    {
      "inputs": [
        {
          "internalType": "address",
          "name": "",
          "type": "address"
        }
      ],
      "name": "authorizedContracts",
      "outputs": [
        {
          "internalType": "bool",
          "name": "",
          "type": "bool"
        }
      ],
      "stateMutability": "view",
      "type": "function"
    },
    {
      "inputs": [
        {
          "internalType": "address",
          "name": "account",
          "type": "address"
        }
      ],
      "name": "balanceOf",
      "outputs": [
        {
          "internalType": "uint256",
          "name": "",
          "type": "uint256"
        }
      ],
      "stateMutability": "view",
      "type": "function"
    },
    {
      "inputs": [
        {
          "internalType": "uint256",
          "name": "amount",
          "type": "uint256"
        }
      ],
      "name": "burn",
      "outputs": [],
      "stateMutability": "nonpayable",
      "type": "function"
    },
    {
      "inputs": [
        {
          "internalType": "address",
          "name": "account",
          "type": "address"
        },
        {
          "internalType": "uint256",
          "name": "amount",
          "type": "uint256"
        }
      ],
      "name": "burnFrom",
      "outputs": [],
      "stateMutability": "nonpayable",
      "type": "function"
    },
    {
      "inputs": [
        {
          "internalType": "address",
          "name": "",
          "type": "address"
        }
      ],
      "name": "contributions",
      "outputs": [
        {
          "internalType": "uint256",
          "name": "",
          "type": "uint256"
        }
      ],
      "stateMutability": "view",
      "type": "function"
    },
    {
      "inputs": [],
      "name": "decimals",
      "outputs": [
        {
          "internalType": "uint8",
          "name": "",
          "type": "uint8"
        }
      ],
      "stateMutability": "view",
      "type": "function"
    },
    {
      "inputs": [
        {
          "internalType": "address",
          "name": "spender",
          "type": "address"
        },
        {
          "internalType": "uint256",
          "name": "subtractedValue",
          "type": "uint256"
        }
      ],
      "name": "decreaseAllowance",
      "outputs": [
        {
          "internalType": "bool",
          "name": "",
          "type": "bool"
        }
      ],
      "stateMutability": "nonpayable",
      "type": "function"
    },
    {
      "inputs": [
        {
          "internalType": "address",
          "name": "spender",
          "type": "address"
        },
        {
          "internalType": "uint256",
          "name": "addedValue",
          "type": "uint256"
        }
      ],
      "name": "increaseAllowance",
      "outputs": [
        {
          "internalType": "bool",
          "name": "",
          "type": "bool"
        }
      ],
      "stateMutability": "nonpayable",
      "type": "function"
    },
    {
      "inputs": [],
      "name": "isTGE",
      "outputs": [
        {
          "internalType": "bool",
          "name": "",
          "type": "bool"
        }
      ],
      "stateMutability": "view",
      "type": "function"
    },
    {
      "inputs": [],
      "name": "name",
      "outputs": [
        {
          "internalType": "string",
          "name": "",
          "type": "string"
        }
      ],
      "stateMutability": "view",
      "type": "function"
    },
    {
      "inputs": [
        {
          "internalType": "address",
          "name": "owner",
          "type": "address"
        }
      ],
      "name": "nonces",
      "outputs": [
        {
          "internalType": "uint256",
          "name": "",
          "type": "uint256"
        }
      ],
      "stateMutability": "view",
      "type": "function"
    },
    {
      "inputs": [],
      "name": "owner",
      "outputs": [
        {
          "internalType": "address",
          "name": "",
          "type": "address"
        }
      ],
      "stateMutability": "view",
      "type": "function"
    },
    {
      "inputs": [],
      "name": "paused",
      "outputs": [
        {
          "internalType": "bool",
          "name": "",
          "type": "bool"
        }
      ],
      "stateMutability": "view",
      "type": "function"
    },
    {
      "inputs": [
        {
          "internalType": "address",
          "name": "owner",
          "type": "address"
        },
        {
          "internalType": "address",
          "name": "spender",
          "type": "address"
        },
        {
          "internalType": "uint256",
          "name": "value",
          "type": "uint256"
        },
        {
          "internalType": "uint256",
          "name": "deadline",
          "type": "uint256"
        },
        {
          "internalType": "uint8",
          "name": "v",
          "type": "uint8"
        },
        {
          "internalType": "bytes32",
          "name": "r",
          "type": "bytes32"
        },
        {
          "internalType": "bytes32",
          "name": "s",
          "type": "bytes32"
        }
      ],
      "name": "permit",
      "outputs": [],
      "stateMutability": "nonpayable",
      "type": "function"
    },
    {
      "inputs": [],
      "name": "renounceOwnership",
      "outputs": [],
      "stateMutability": "nonpayable",
      "type": "function"
    },
    {
      "inputs": [],
      "name": "symbol",
      "outputs": [
        {
          "internalType": "string",
          "name": "",
          "type": "string"
        }
      ],
      "stateMutability": "view",
      "type": "function"
    },
    {
      "inputs": [],
      "name": "totalContributors",
      "outputs": [
        {
          "internalType": "uint16",
          "name": "",
          "type": "uint16"
        }
      ],
      "stateMutability": "view",
      "type": "function"
    },
    {
      "inputs": [],
      "name": "totalSupply",
      "outputs": [
        {
          "internalType": "uint256",
          "name": "",
          "type": "uint256"
        }
      ],
      "stateMutability": "view",
      "type": "function"
    },
    {
      "inputs": [
        {
          "internalType": "address",
          "name": "",
          "type": "address"
        }
      ],
      "name": "totalZoomBurned",
      "outputs": [
        {
          "internalType": "uint256",
          "name": "",
          "type": "uint256"
        }
      ],
      "stateMutability": "view",
      "type": "function"
    },
    {
      "inputs": [],
      "name": "totalZoomPurchased",
      "outputs": [
        {
          "internalType": "uint256",
          "name": "",
          "type": "uint256"
        }
      ],
      "stateMutability": "view",
      "type": "function"
    },
    {
      "inputs": [
        {
          "internalType": "address",
          "name": "to",
          "type": "address"
        },
        {
          "internalType": "uint256",
          "name": "amount",
          "type": "uint256"
        }
      ],
      "name": "transfer",
      "outputs": [
        {
          "internalType": "bool",
          "name": "",
          "type": "bool"
        }
      ],
      "stateMutability": "nonpayable",
      "type": "function"
    },
    {
      "inputs": [
        {
          "internalType": "address",
          "name": "from",
          "type": "address"
        },
        {
          "internalType": "address",
          "name": "to",
          "type": "address"
        },
        {
          "internalType": "uint256",
          "name": "amount",
          "type": "uint256"
        }
      ],
      "name": "transferFrom",
      "outputs": [
        {
          "internalType": "bool",
          "name": "",
          "type": "bool"
        }
      ],
      "stateMutability": "nonpayable",
      "type": "function"
    },
    {
      "inputs": [
        {
          "internalType": "address",
          "name": "newOwner",
          "type": "address"
        }
      ],
      "name": "transferOwnership",
      "outputs": [],
      "stateMutability": "nonpayable",
      "type": "function"
    },
    {
      "inputs": [
        {
          "internalType": "address",
          "name": "",
          "type": "address"
        }
      ],
      "name": "zoomScore",
      "outputs": [
        {
          "internalType": "uint256",
          "name": "",
          "type": "uint256"
        }
      ],
      "stateMutability": "view",
      "type": "function"
    },
    {
      "inputs": [],
      "name": "pause",
      "outputs": [],
      "stateMutability": "nonpayable",
      "type": "function"
    },
    {
      "inputs": [],
      "name": "unpause",
      "outputs": [],
      "stateMutability": "nonpayable",
      "type": "function"
    },
    {
      "inputs": [],
      "name": "endTGE",
      "outputs": [
        {
          "internalType": "bool",
          "name": "",
          "type": "bool"
        }
      ],
      "stateMutability": "nonpayable",
      "type": "function"
    },
    {
      "inputs": [
        {
          "internalType": "address",
          "name": "_newZoombiesService",
          "type": "address"
        },
        {
          "internalType": "bool",
          "name": "_isAuthorized",
          "type": "bool"
        }
      ],
      "name": "setAuthorizedContract",
      "outputs": [],
      "stateMutability": "nonpayable",
      "type": "function"
    },
    {
      "inputs": [],
      "name": "buy",
      "outputs": [],
      "stateMutability": "payable",
      "type": "function"
    },
    {
      "inputs": [
        {
          "internalType": "address",
          "name": "_to",
          "type": "address"
        },
        {
          "internalType": "uint256",
          "name": "_amount",
          "type": "uint256"
        }
      ],
      "name": "awardZoom",
      "outputs": [],
      "stateMutability": "nonpayable",
      "type": "function"
    },
    {
      "inputs": [
        {
          "internalType": "address",
          "name": "_wallet",
          "type": "address"
        },
        {
          "internalType": "uint256",
          "name": "_amount",
          "type": "uint256"
        }
      ],
      "name": "burnZoom",
      "outputs": [],
      "stateMutability": "nonpayable",
      "type": "function"
    },
    {
      "inputs": [],
      "name": "withdraw",
      "outputs": [
        {
          "internalType": "bool",
          "name": "",
          "type": "bool"
        }
      ],
      "stateMutability": "nonpayable",
      "type": "function"
    }
  ],
  "bytecode": "0x6101406040526008805461ffff191690556000600955600a805460ff191660011790553480156200002f57600080fd5b50604051806040016040528060098152602001682d37b7b6aa37b5b2b760b91b81525080604051806040016040528060018152602001603160f81b815250604051806040016040528060098152602001682d37b7b6aa37b5b2b760b91b815250604051806040016040528060048152602001635a4f4f4d60e01b8152508160039080519060200190620000c492919062000341565b508051620000da90600490602084019062000341565b50506005805460ff1916905550620000f233620001a1565b815160209283012081519183019190912060e08290526101008190524660a0818152604080517f8b73c3c69bb8fe3d512ecc4cf759cc79239f7b179b0ffacaa9a75d522b39400f818801819052818301969096526060810194909452608080850193909352308483018190528151808603909301835260c09485019091528151919095012090529190915261012052506200019b336c010f6b2be4706a13fc20000000620001fb565b6200044b565b600580546001600160a01b03838116610100818102610100600160a81b031985161790945560405193909204169182907f8be0079c531659141344cd1fd0a4f28419497f9722a3daafe3b4186f6b6457e090600090a35050565b6001600160a01b038216620002575760405162461bcd60e51b815260206004820152601f60248201527f45524332303a206d696e7420746f20746865207a65726f20616464726573730060448201526064015b60405180910390fd5b6200026560008383620002d0565b8060026000828254620002799190620003e7565b90915550506001600160a01b038216600081815260208181526040808320805486019055518481527fddf252ad1be2c89b69c2b068fc378daa952ba7f163c4a11628f55a4df523b3ef910160405180910390a35050565b620002da620002f7565b620002f2838383620002f260201b62000fe71760201c565b505050565b60055460ff16156200033f5760405162461bcd60e51b815260206004820152601060248201526f14185d5cd8589b194e881c185d5cd95960821b60448201526064016200024e565b565b8280546200034f906200040e565b90600052602060002090601f016020900481019282620003735760008555620003be565b82601f106200038e57805160ff1916838001178555620003be565b82800160010185558215620003be579182015b82811115620003be578251825591602001919060010190620003a1565b50620003cc929150620003d0565b5090565b5b80821115620003cc5760008155600101620003d1565b600082198211156200040957634e487b7160e01b600052601160045260246000fd5b500190565b600181811c908216806200042357607f821691505b602082108114156200044557634e487b7160e01b600052602260045260246000fd5b50919050565b60805160a05160c05160e0516101005161012051611e4b6200049b600039600061148e015260006114dd015260006114b8015260006114110152600061143b015260006114650152611e4b6000f3fe6080604052600436106102045760003560e01c806379cc679011610118578063b0b9d0e4116100a0578063d5b9221b1161006f578063d5b9221b146105b7578063dd62ed3e146105e7578063f251fc8c14610607578063f2fa739214610635578063f2fde38b1461065557600080fd5b8063b0b9d0e414610527578063b0d767a114610554578063c8439e4914610581578063d505accf1461059757600080fd5b80638da5cb5b116100e75780638da5cb5b1461049457806395d89b41146104ca578063a457c2d7146104df578063a6f2ae3a146104ff578063a9059cbb1461050757600080fd5b806379cc6790146104255780637ecebe001461044557806383eb7d29146104655780638456cb591461047f57600080fd5b8063395093511161019b57806342e94c901161016a57806342e94c901461038057806354b48428146103ad5780635c975abb146103c257806370a08231146103da578063715018a61461041057600080fd5b806339509351146103165780633ccfd60b146103365780633f4ba83a1461034b57806342966c681461036057600080fd5b806323b872dd116101d757806323b872dd146102a5578063313ce567146102c55780633644e515146102e157806336ec0dd6146102f657600080fd5b806306fdde0314610209578063095ea7b31461023457806318160ddd1461026457806321af688914610283575b600080fd5b34801561021557600080fd5b5061021e610675565b60405161022b9190611b18565b60405180910390f35b34801561024057600080fd5b5061025461024f366004611b89565b610707565b604051901515815260200161022b565b34801561027057600080fd5b506002545b60405190815260200161022b565b34801561028f57600080fd5b506102a361029e366004611b89565b61071f565b005b3480156102b157600080fd5b506102546102c0366004611bb3565b610873565b3480156102d157600080fd5b506040516012815260200161022b565b3480156102ed57600080fd5b50610275610897565b34801561030257600080fd5b506102a3610311366004611b89565b6108a6565b34801561032257600080fd5b50610254610331366004611b89565b6109ed565b34801561034257600080fd5b50610254610a0f565b34801561035757600080fd5b506102a3610a61565b34801561036c57600080fd5b506102a361037b366004611bef565b610a73565b34801561038c57600080fd5b5061027561039b366004611c08565b600b6020526000908152604090205481565b3480156103b957600080fd5b50610254610a80565b3480156103ce57600080fd5b5060055460ff16610254565b3480156103e657600080fd5b506102756103f5366004611c08565b6001600160a01b031660009081526020819052604090205490565b34801561041c57600080fd5b506102a3610ae4565b34801561043157600080fd5b506102a3610440366004611b89565b610af6565b34801561045157600080fd5b50610275610460366004611c08565b610b0f565b34801561047157600080fd5b50600a546102549060ff1681565b34801561048b57600080fd5b506102a3610b2f565b3480156104a057600080fd5b5060055461010090046001600160a01b03166040516001600160a01b03909116815260200161022b565b3480156104d657600080fd5b5061021e610b3f565b3480156104eb57600080fd5b506102546104fa366004611b89565b610b4e565b6102a3610bc9565b34801561051357600080fd5b50610254610522366004611b89565b610d4a565b34801561053357600080fd5b50610275610542366004611c08565b600c6020526000908152604090205481565b34801561056057600080fd5b5061027561056f366004611c08565b600d6020526000908152604090205481565b34801561058d57600080fd5b5061027560095481565b3480156105a357600080fd5b506102a36105b2366004611c2a565b610d58565b3480156105c357600080fd5b506102546105d2366004611c08565b600e6020526000908152604090205460ff1681565b3480156105f357600080fd5b50610275610602366004611c9d565b610ebc565b34801561061357600080fd5b506008546106229061ffff1681565b60405161ffff909116815260200161022b565b34801561064157600080fd5b506102a3610650366004611cd0565b610ee7565b34801561066157600080fd5b506102a3610670366004611c08565b610f71565b60606003805461068490611d0c565b80601f01602080910402602001604051908101604052809291908181526020018280546106b090611d0c565b80156106fd5780601f106106d2576101008083540402835291602001916106fd565b820191906000526020600020905b8154815290600101906020018083116106e057829003601f168201915b5050505050905090565b600033610715818585610fec565b5060019392505050565b336000908152600e602052604090205460ff1615156001146107775760405162461bcd60e51b815260206004820152600c60248201526b155b985d5d1a1bdc9a5e995960a21b60448201526064015b60405180910390fd5b6001600160a01b03821661079d5760405162461bcd60e51b815260040161076e90611d41565b600081116107de5760405162461bcd60e51b815260206004820152600e60248201526d125b9d985b1a5908185b5bdd5b9d60921b604482015260640161076e565b6001600160a01b0382166000908152600c602052604081208054839290610806908490611d80565b9091555061081690508282611110565b6001600160a01b0382166000818152600c60209081526040918290205482519384529083015281018290527fcdefd490ff791507548590ca6e2ed83ea85ed74e92dd99b73dad4f197b63d729906060015b60405180910390a15050565b6000336108818582856111db565b61088c858585611255565b506001949350505050565b60006108a1611404565b905090565b336000908152600e602052604090205460ff1615156001146108f95760405162461bcd60e51b815260206004820152600c60248201526b155b985d5d1a1bdc9a5e995960a21b604482015260640161076e565b6001600160a01b03821661091f5760405162461bcd60e51b815260040161076e90611d41565b600081116109605760405162461bcd60e51b815260206004820152600e60248201526d125b9d985b1a5908185b5bdd5b9d60921b604482015260640161076e565b6001600160a01b0382166000908152600d602052604081208054839290610988908490611d80565b909155506109989050828261152b565b6001600160a01b0382166000818152600d60209081526040918290205482519384529083015281018290527fc201a911ef5ad6aee004557564e7278d36fd1dcb48b57aab65a15c3f484f404590606001610867565b600033610715818585610a008383610ebc565b610a0a9190611d80565b610fec565b6000610a19611669565b6005546040516001600160a01b0361010090920491909116904780156108fc02916000818181858888f19350505050158015610a59573d6000803e3d6000fd5b506001905090565b610a69611669565b610a716116c9565b565b610a7d338261152b565b50565b6000610a8a611669565b600a5460ff16151560011415610ade57600a805460ff19169055604051600181527f87321e3b1aba74818e17de530ebd4f14c51f0bbff385730af9ed82115e808df99060200160405180910390a150600190565b50600090565b610aec611669565b610a716000611716565b610b018233836111db565b610b0b828261152b565b5050565b6001600160a01b0381166000908152600660205260408120545b92915050565b610b37611669565b610a71611770565b60606004805461068490611d0c565b60003381610b5c8286610ebc565b905083811015610bbc5760405162461bcd60e51b815260206004820152602560248201527f45524332303a2064656372656173656420616c6c6f77616e63652062656c6f77604482015264207a65726f60d81b606482015260840161076e565b61088c8286868403610fec565b600a5460ff16610bd857600080fd5b670de0b6b3a7640000341015610c215760405162461bcd60e51b815260206004820152600e60248201526d26b4b7171034b990189023a626a960911b604482015260640161076e565b336000908152600b6020526040902054610c5e57600854610c479061ffff166001611d98565b6008805461ffff191661ffff929092169190911790555b336000908152600b602052604081208054349290610c7d908490611d80565b90915550610c8c9050346117ad565b60096000828254610c9d9190611d80565b90915550610cac9050346117ad565b336000908152600c602052604081208054909190610ccb908490611d80565b90915550610ce3905033610cde346117ad565b611110565b336000818152600c60205260409020547f8e36b16e23b051942a8669311282fba269a6dde6de148967f2807c9d77f28c3a9190610d1f346117ad565b604080516001600160a01b0390941684526020840192909252908201526060015b60405180910390a1565b600033610715818585611255565b83421115610da85760405162461bcd60e51b815260206004820152601d60248201527f45524332305065726d69743a206578706972656420646561646c696e65000000604482015260640161076e565b60007f6e71edae12b1b97f4d1f60370fef10105fa2faae0126114a169c64845d6126c9888888610dd78c6117d1565b6040805160208101969096526001600160a01b0394851690860152929091166060840152608083015260a082015260c0810186905260e0016040516020818303038152906040528051906020012090506000610e32826117f9565b90506000610e4282878787611847565b9050896001600160a01b0316816001600160a01b031614610ea55760405162461bcd60e51b815260206004820152601e60248201527f45524332305065726d69743a20696e76616c6964207369676e61747572650000604482015260640161076e565b610eb08a8a8a610fec565b50505050505050505050565b6001600160a01b03918216600090815260016020908152604080832093909416825291909152205490565b610eef611669565b6001600160a01b038216610f155760405162461bcd60e51b815260040161076e90611d41565b6001600160a01b0382166000818152600e6020908152604091829020805460ff19168515159081179091558251938452908301527f4301deb836982815880ac35930b8755bc31eef2e5219cb4998969f9a1f841d5b9101610867565b610f79611669565b6001600160a01b038116610fde5760405162461bcd60e51b815260206004820152602660248201527f4f776e61626c653a206e6577206f776e657220697320746865207a65726f206160448201526564647265737360d01b606482015260840161076e565b610a7d81611716565b505050565b6001600160a01b03831661104e5760405162461bcd60e51b8152602060048201526024808201527f45524332303a20617070726f76652066726f6d20746865207a65726f206164646044820152637265737360e01b606482015260840161076e565b6001600160a01b0382166110af5760405162461bcd60e51b815260206004820152602260248201527f45524332303a20617070726f766520746f20746865207a65726f206164647265604482015261737360f01b606482015260840161076e565b6001600160a01b0383811660008181526001602090815260408083209487168084529482529182902085905590518481527f8c5be1e5ebec7d5bd14f71427d1e84f3dd0314c0f7b2291e5b200ac8c7c3b925910160405180910390a3505050565b6001600160a01b0382166111665760405162461bcd60e51b815260206004820152601f60248201527f45524332303a206d696e7420746f20746865207a65726f206164647265737300604482015260640161076e565b6111726000838361186f565b80600260008282546111849190611d80565b90915550506001600160a01b038216600081815260208181526040808320805486019055518481527fddf252ad1be2c89b69c2b068fc378daa952ba7f163c4a11628f55a4df523b3ef910160405180910390a35050565b60006111e78484610ebc565b9050600019811461124f57818110156112425760405162461bcd60e51b815260206004820152601d60248201527f45524332303a20696e73756666696369656e7420616c6c6f77616e6365000000604482015260640161076e565b61124f8484848403610fec565b50505050565b6001600160a01b0383166112b95760405162461bcd60e51b815260206004820152602560248201527f45524332303a207472616e736665722066726f6d20746865207a65726f206164604482015264647265737360d81b606482015260840161076e565b6001600160a01b03821661131b5760405162461bcd60e51b815260206004820152602360248201527f45524332303a207472616e7366657220746f20746865207a65726f206164647260448201526265737360e81b606482015260840161076e565b61132683838361186f565b6001600160a01b0383166000908152602081905260409020548181101561139e5760405162461bcd60e51b815260206004820152602660248201527f45524332303a207472616e7366657220616d6f756e7420657863656564732062604482015265616c616e636560d01b606482015260840161076e565b6001600160a01b03848116600081815260208181526040808320878703905593871680835291849020805487019055925185815290927fddf252ad1be2c89b69c2b068fc378daa952ba7f163c4a11628f55a4df523b3ef910160405180910390a361124f565b6000306001600160a01b037f00000000000000000000000000000000000000000000000000000000000000001614801561145d57507f000000000000000000000000000000000000000000000000000000000000000046145b1561148757507f000000000000000000000000000000000000000000000000000000000000000090565b50604080517f00000000000000000000000000000000000000000000000000000000000000006020808301919091527f0000000000000000000000000000000000000000000000000000000000000000828401527f000000000000000000000000000000000000000000000000000000000000000060608301524660808301523060a0808401919091528351808403909101815260c0909201909252805191012090565b6001600160a01b03821661158b5760405162461bcd60e51b815260206004820152602160248201527f45524332303a206275726e2066726f6d20746865207a65726f206164647265736044820152607360f81b606482015260840161076e565b6115978260008361186f565b6001600160a01b0382166000908152602081905260409020548181101561160b5760405162461bcd60e51b815260206004820152602260248201527f45524332303a206275726e20616d6f756e7420657863656564732062616c616e604482015261636560f01b606482015260840161076e565b6001600160a01b0383166000818152602081815260408083208686039055600280548790039055518581529192917fddf252ad1be2c89b69c2b068fc378daa952ba7f163c4a11628f55a4df523b3ef910160405180910390a3505050565b6005546001600160a01b03610100909104163314610a715760405162461bcd60e51b815260206004820181905260248201527f4f776e61626c653a2063616c6c6572206973206e6f7420746865206f776e6572604482015260640161076e565b6116d1611877565b6005805460ff191690557f5db9ee0a495bf2e6ff9c91a7834c1ba4fdd244a5e8aa4e537bd38aeae4b073aa335b6040516001600160a01b039091168152602001610d40565b600580546001600160a01b03838116610100818102610100600160a81b031985161790945560405193909204169182907f8be0079c531659141344cd1fd0a4f28419497f9722a3daafe3b4186f6b6457e090600090a35050565b6117786118c0565b6005805460ff191660011790557f62e78cea01bee320cd4e420270b5ea74000d11b0c9f74754ebdbfc544b05a2586116fe3390565b60006117bf6509184e72a00083611dbe565b610b2990670de0b6b3a7640000611de0565b6001600160a01b03811660009081526006602052604090208054600181018255905b50919050565b6000610b29611806611404565b8360405161190160f01b6020820152602281018390526042810182905260009060620160405160208183030381529060405280519060200120905092915050565b600080600061185887878787611906565b91509150611865816119ca565b5095945050505050565b610fe76118c0565b60055460ff16610a715760405162461bcd60e51b815260206004820152601460248201527314185d5cd8589b194e881b9bdd081c185d5cd95960621b604482015260640161076e565b60055460ff1615610a715760405162461bcd60e51b815260206004820152601060248201526f14185d5cd8589b194e881c185d5cd95960821b604482015260640161076e565b6000807f7fffffffffffffffffffffffffffffff5d576e7357a4501ddfe92f46681b20a083111561193d57506000905060036119c1565b6040805160008082526020820180845289905260ff881692820192909252606081018690526080810185905260019060a0016020604051602081039080840390855afa158015611991573d6000803e3d6000fd5b5050604051601f1901519150506001600160a01b0381166119ba576000600192509250506119c1565b9150600090505b94509492505050565b60008160048111156119de576119de611dff565b14156119e75750565b60018160048111156119fb576119fb611dff565b1415611a495760405162461bcd60e51b815260206004820152601860248201527f45434453413a20696e76616c6964207369676e61747572650000000000000000604482015260640161076e565b6002816004811115611a5d57611a5d611dff565b1415611aab5760405162461bcd60e51b815260206004820152601f60248201527f45434453413a20696e76616c6964207369676e6174757265206c656e67746800604482015260640161076e565b6003816004811115611abf57611abf611dff565b1415610a7d5760405162461bcd60e51b815260206004820152602260248201527f45434453413a20696e76616c6964207369676e6174757265202773272076616c604482015261756560f01b606482015260840161076e565b600060208083528351808285015260005b81811015611b4557858101830151858201604001528201611b29565b81811115611b57576000604083870101525b50601f01601f1916929092016040019392505050565b80356001600160a01b0381168114611b8457600080fd5b919050565b60008060408385031215611b9c57600080fd5b611ba583611b6d565b946020939093013593505050565b600080600060608486031215611bc857600080fd5b611bd184611b6d565b9250611bdf60208501611b6d565b9150604084013590509250925092565b600060208284031215611c0157600080fd5b5035919050565b600060208284031215611c1a57600080fd5b611c2382611b6d565b9392505050565b600080600080600080600060e0888a031215611c4557600080fd5b611c4e88611b6d565b9650611c5c60208901611b6d565b95506040880135945060608801359350608088013560ff81168114611c8057600080fd5b9699959850939692959460a0840135945060c09093013592915050565b60008060408385031215611cb057600080fd5b611cb983611b6d565b9150611cc760208401611b6d565b90509250929050565b60008060408385031215611ce357600080fd5b611cec83611b6d565b915060208301358015158114611d0157600080fd5b809150509250929050565b600181811c90821680611d2057607f821691505b602082108114156117f357634e487b7160e01b600052602260045260246000fd5b6020808252600f908201526e496e76616c6964206164647265737360881b604082015260600190565b634e487b7160e01b600052601160045260246000fd5b60008219821115611d9357611d93611d6a565b500190565b600061ffff808316818516808303821115611db557611db5611d6a565b01949350505050565b600082611ddb57634e487b7160e01b600052601260045260246000fd5b500490565b6000816000190483118215151615611dfa57611dfa611d6a565b500290565b634e487b7160e01b600052602160045260246000fdfea26469706673582212206c09f8cd5d83a6d9b35d4f226d17c86a35628a32f61911ca0482cf90da05b2d264736f6c63430008090033",
  "immutableReferences": {
    "3633": [
      {
        "length": 32,
        "start": 5221
      }
    ],
    "3635": [
      {
        "length": 32,
        "start": 5179
      }
    ],
    "3637": [
      {
        "length": 32,
        "start": 5137
      }
    ],
    "3639": [
      {
        "length": 32,
        "start": 5304
      }
    ],
    "3641": [
      {
        "length": 32,
        "start": 5341
      }
    ],
    "3643": [
      {
        "length": 32,
        "start": 5262
      }
    ]
  },
  "source": "// SPDX-License-Identifier: MIT\npragma solidity 0.8.9;\n\nimport \"@openzeppelin/contracts/token/ERC20/ERC20.sol\";\nimport \"@openzeppelin/contracts/token/ERC20/extensions/ERC20Burnable.sol\";\nimport \"@openzeppelin/contracts/security/Pausable.sol\";\nimport \"@openzeppelin/contracts/access/Ownable.sol\";\nimport \"@openzeppelin/contracts/token/ERC20/extensions/draft-ERC20Permit.sol\";\n\n\ncontract ZoomToken is ERC20, ERC20Burnable, Pausable, Ownable, ERC20Permit {\n    constructor() ERC20(\"ZoomToken\", \"ZOOM\") ERC20Permit(\"ZoomToken\") {\n        //Mint Liquidity provider tokens\n        _mint(msg.sender, 84000000000e18);\n    }\n\n    function pause() public onlyOwner {\n        _pause();\n    }\n\n    function unpause() public onlyOwner {\n        _unpause();\n    }\n\n    uint16 public totalContributors = 0; //LIVE\n    uint256 public totalZoomPurchased = 0;\n    bool public isTGE = true;\n\n    event TGEClosed (bool isTGEClosed);\n    event contractAuthorized(address newZoombiesService, bool isApproved);\n    event zoomContribution(address contributor, uint256 ZoomScore,uint256 amount);\n    event zoomScoreUpdated(address owner, uint256 newZoomScore, uint256 amount);\n    event zoomBurned(address owner, uint256 totalZoomBurned, uint256 amount);\n\n    //Storage\n    //supporters\n    mapping (address => uint256) public contributions;      // GLMR contributed per address\n    mapping (address => uint256) public zoomScore;          // Total count of ZOOM acquired\n    mapping (address => uint256) public totalZoomBurned;    // Total ZOOM sacrificed\n    mapping (address => bool) public authorizedContracts;   // external Zoombies contracts to manage Mint/Burn\n\n    function endTGE() external onlyOwner returns(bool) {\n        if(isTGE == true){\n            isTGE = false;\n            emit TGEClosed(true);\n            return true;\n        }\n        return false;\n    }\n\n    function setAuthorizedContract(address _newZoombiesService, bool _isAuthorized) external onlyOwner {\n        require(_newZoombiesService != address(0x0), \"Invalid address\");\n        authorizedContracts[_newZoombiesService] = _isAuthorized;\n        emit contractAuthorized(_newZoombiesService, _isAuthorized);\n    }\n\n    //Available only during TGE\n    function buy() external payable {\n        if(isTGE == false){\n            revert();\n        }\n\n        require(msg.value >= 1000000000000000000, \"Min. is 1 GLMR\");\n\n      //All clear ?\n        if (contributions[_msgSender()] == 0) {\n            totalContributors = totalContributors + 1;\n        }\n\n        //track total contributions per wallet\n        contributions[_msgSender()] += msg.value;\n        totalZoomPurchased += convertWeiToZoom(msg.value);\n\n        zoomScore[_msgSender()] += convertWeiToZoom(msg.value);\n        _mint(_msgSender(), convertWeiToZoom(msg.value));\n        emit zoomContribution(_msgSender(), zoomScore[_msgSender()], convertWeiToZoom(msg.value));\n    }\n\n    /**\n     *  Called in from our Authorized ERC721 contract services actions\n     */\n    function awardZoom(address _to, uint256 _amount) external  {\n        require(authorizedContracts[_msgSender()] == true, \"Unauthorized\");\n        require(_to != address(0), \"Invalid address\");\n        require(_amount > 0, \"Invalid amount\");\n\n        zoomScore[_to] += _amount;\n        _mint(_to, _amount);\n        emit zoomScoreUpdated(_to, zoomScore[_to], _amount);\n    }\n\n    /**\n     *  Called in from our Authorized ERC721 contract services actions\n     */\n    function burnZoom(address _wallet, uint256 _amount) external {\n        require(authorizedContracts[_msgSender()] == true, \"Unauthorized\");\n        require(_wallet != address(0), \"Invalid address\");\n        require(_amount > 0, \"Invalid amount\");\n        \n        totalZoomBurned[_wallet] += _amount;\n        _burn(_wallet, _amount);\n        emit zoomBurned(_wallet, totalZoomBurned[_wallet], _amount);\n    }\n\n   /**\n    * Withdraw balance to wallet\n    */\n    function withdraw() external onlyOwner returns(bool) {\n        payable(owner()).transfer(address(this).balance);\n        return true;\n    }\n\n/* INTERNAL */\n    function _beforeTokenTransfer(address from, address to, uint256 amount)\n        internal\n        whenNotPaused\n        override\n    {\n        super._beforeTokenTransfer(from, to, amount);\n    }\n\n     /**\n      * Our base conversion rate for the TGE\n      */\n    function convertWeiToZoom(uint weiToConvert) internal pure returns (uint) {\n          // 1 ZOOM = 10000000000000 wei;\n        return (weiToConvert/10000000000000) * 1e18;\n    }\n}\n",
  "sourcePath": "/Users/ryanprice/MyApplications/Solidity/Zoombies/contracts/ZoomToken.sol",
  "compiler": {
    "name": "solc",
    "version": "0.8.9+commit.e5eed63a.Emscripten.clang"
  },
  "schemaVersion": "3.4.13",
  "updatedAt": "2023-04-19T13:33:43.637Z",
  "networkType": "ethereum",
  "devdoc": {
    "kind": "dev",
    "methods": {
      "DOMAIN_SEPARATOR()": {
        "details": "See {IERC20Permit-DOMAIN_SEPARATOR}."
      },
      "allowance(address,address)": {
        "details": "See {IERC20-allowance}."
      },
      "approve(address,uint256)": {
        "details": "See {IERC20-approve}. NOTE: If `amount` is the maximum `uint256`, the allowance is not updated on `transferFrom`. This is semantically equivalent to an infinite approval. Requirements: - `spender` cannot be the zero address."
      },
      "balanceOf(address)": {
        "details": "See {IERC20-balanceOf}."
      },
      "burn(uint256)": {
        "details": "Destroys `amount` tokens from the caller. See {ERC20-_burn}."
      },
      "burnFrom(address,uint256)": {
        "details": "Destroys `amount` tokens from `account`, deducting from the caller's allowance. See {ERC20-_burn} and {ERC20-allowance}. Requirements: - the caller must have allowance for ``accounts``'s tokens of at least `amount`."
      },
      "decimals()": {
        "details": "Returns the number of decimals used to get its user representation. For example, if `decimals` equals `2`, a balance of `505` tokens should be displayed to a user as `5.05` (`505 / 10 ** 2`). Tokens usually opt for a value of 18, imitating the relationship between Ether and Wei. This is the value {ERC20} uses, unless this function is overridden; NOTE: This information is only used for _display_ purposes: it in no way affects any of the arithmetic of the contract, including {IERC20-balanceOf} and {IERC20-transfer}."
      },
      "decreaseAllowance(address,uint256)": {
        "details": "Atomically decreases the allowance granted to `spender` by the caller. This is an alternative to {approve} that can be used as a mitigation for problems described in {IERC20-approve}. Emits an {Approval} event indicating the updated allowance. Requirements: - `spender` cannot be the zero address. - `spender` must have allowance for the caller of at least `subtractedValue`."
      },
      "increaseAllowance(address,uint256)": {
        "details": "Atomically increases the allowance granted to `spender` by the caller. This is an alternative to {approve} that can be used as a mitigation for problems described in {IERC20-approve}. Emits an {Approval} event indicating the updated allowance. Requirements: - `spender` cannot be the zero address."
      },
      "name()": {
        "details": "Returns the name of the token."
      },
      "nonces(address)": {
        "details": "See {IERC20Permit-nonces}."
      },
      "owner()": {
        "details": "Returns the address of the current owner."
      },
      "paused()": {
        "details": "Returns true if the contract is paused, and false otherwise."
      },
      "permit(address,address,uint256,uint256,uint8,bytes32,bytes32)": {
        "details": "See {IERC20Permit-permit}."
      },
      "renounceOwnership()": {
        "details": "Leaves the contract without owner. It will not be possible to call `onlyOwner` functions anymore. Can only be called by the current owner. NOTE: Renouncing ownership will leave the contract without an owner, thereby removing any functionality that is only available to the owner."
      },
      "symbol()": {
        "details": "Returns the symbol of the token, usually a shorter version of the name."
      },
      "totalSupply()": {
        "details": "See {IERC20-totalSupply}."
      },
      "transfer(address,uint256)": {
        "details": "See {IERC20-transfer}. Requirements: - `to` cannot be the zero address. - the caller must have a balance of at least `amount`."
      },
      "transferFrom(address,address,uint256)": {
        "details": "See {IERC20-transferFrom}. Emits an {Approval} event indicating the updated allowance. This is not required by the EIP. See the note at the beginning of {ERC20}. NOTE: Does not update the allowance if the current allowance is the maximum `uint256`. Requirements: - `from` and `to` cannot be the zero address. - `from` must have a balance of at least `amount`. - the caller must have allowance for ``from``'s tokens of at least `amount`."
      },
      "transferOwnership(address)": {
        "details": "Transfers ownership of the contract to a new account (`newOwner`). Can only be called by the current owner."
      }
    },
    "version": 1
  },
  "userdoc": {
    "kind": "user",
    "methods": {
      "awardZoom(address,uint256)": {
        "notice": "Called in from our Authorized ERC721 contract services actions"
      },
      "burnZoom(address,uint256)": {
        "notice": "Called in from our Authorized ERC721 contract services actions"
      },
      "withdraw()": {
        "notice": "Withdraw balance to wallet"
      }
    },
    "version": 1
  }
}