{
  "contractName": "Zoombies",
  "abi": [
    {
      "inputs": [
        {
          "internalType": "address",
          "name": "_zoomTokenContract",
          "type": "address"
        }
      ],
      "stateMutability": "nonpayable",
      "type": "constructor"
    },
    {
      "anonymous": false,
      "inputs": [
        {
          "indexed": true,
          "internalType": "address",
          "name": "owner",
          "type": "address"
        },
        {
          "indexed": true,
          "internalType": "address",
          "name": "approved",
          "type": "address"
        },
        {
          "indexed": true,
          "internalType": "uint256",
          "name": "tokenId",
          "type": "uint256"
        }
      ],
      "name": "Approval",
      "type": "event"
    },
    {
      "anonymous": false,
      "inputs": [
        {
          "indexed": true,
          "internalType": "address",
          "name": "owner",
          "type": "address"
        },
        {
          "indexed": true,
          "internalType": "address",
          "name": "operator",
          "type": "address"
        },
        {
          "indexed": false,
          "internalType": "bool",
          "name": "approved",
          "type": "bool"
        }
      ],
      "name": "ApprovalForAll",
      "type": "event"
    },
    {
      "anonymous": false,
      "inputs": [
        {
          "indexed": true,
          "internalType": "address",
          "name": "buyer",
          "type": "address"
        },
        {
          "indexed": false,
          "internalType": "uint256",
          "name": "tokenId",
          "type": "uint256"
        },
        {
          "indexed": false,
          "internalType": "uint8",
          "name": "rarity",
          "type": "uint8"
        },
        {
          "indexed": true,
          "internalType": "uint32",
          "name": "cardTypeId",
          "type": "uint32"
        },
        {
          "indexed": false,
          "internalType": "uint256",
          "name": "editionNumber",
          "type": "uint256"
        },
        {
          "indexed": false,
          "internalType": "bool",
          "name": "isFoil",
          "type": "bool"
        }
      ],
      "name": "LogCardMinted",
      "type": "event"
    },
    {
      "anonymous": false,
      "inputs": [
        {
          "indexed": true,
          "internalType": "uint32",
          "name": "cardTypeId",
          "type": "uint32"
        },
        {
          "indexed": false,
          "internalType": "string",
          "name": "cardTypeName",
          "type": "string"
        },
        {
          "indexed": false,
          "internalType": "uint256",
          "name": "editionTotal",
          "type": "uint256"
        }
      ],
      "name": "LogCardTypeLoaded",
      "type": "event"
    },
    {
      "anonymous": false,
      "inputs": [
        {
          "indexed": false,
          "internalType": "address",
          "name": "newZoombiesService",
          "type": "address"
        },
        {
          "indexed": false,
          "internalType": "bool",
          "name": "isApproved",
          "type": "bool"
        }
      ],
      "name": "LogContractAuthorized",
      "type": "event"
    },
    {
      "anonymous": false,
      "inputs": [
        {
          "indexed": false,
          "internalType": "uint256",
          "name": "newCost",
          "type": "uint256"
        }
      ],
      "name": "LogCostOfBoosterUpdated",
      "type": "event"
    },
    {
      "anonymous": false,
      "inputs": [
        {
          "indexed": false,
          "internalType": "address",
          "name": "player",
          "type": "address"
        },
        {
          "indexed": false,
          "internalType": "uint256",
          "name": "newBoosterBalance",
          "type": "uint256"
        }
      ],
      "name": "LogDailyReward",
      "type": "event"
    },
    {
      "anonymous": false,
      "inputs": [
        {
          "indexed": true,
          "internalType": "address",
          "name": "buyer",
          "type": "address"
        },
        {
          "indexed": false,
          "internalType": "uint8",
          "name": "rarity",
          "type": "uint8"
        }
      ],
      "name": "LogPackOpened",
      "type": "event"
    },
    {
      "anonymous": false,
      "inputs": [
        {
          "indexed": false,
          "internalType": "address",
          "name": "winner",
          "type": "address"
        },
        {
          "indexed": false,
          "internalType": "uint256",
          "name": "boostersAwarded",
          "type": "uint256"
        }
      ],
      "name": "LogRewardBoosters",
      "type": "event"
    },
    {
      "anonymous": false,
      "inputs": [
        {
          "indexed": false,
          "internalType": "address",
          "name": "owner",
          "type": "address"
        },
        {
          "indexed": false,
          "internalType": "uint256",
          "name": "tokenId",
          "type": "uint256"
        },
        {
          "indexed": false,
          "internalType": "uint16",
          "name": "cardTypeId",
          "type": "uint16"
        },
        {
          "indexed": false,
          "internalType": "uint256",
          "name": "zoomGained",
          "type": "uint256"
        },
        {
          "indexed": false,
          "internalType": "uint256",
          "name": "totalSacrificed",
          "type": "uint256"
        }
      ],
      "name": "LogSacrificeNFT",
      "type": "event"
    },
    {
      "anonymous": false,
      "inputs": [
        {
          "indexed": false,
          "internalType": "address",
          "name": "sponsor",
          "type": "address"
        },
        {
          "indexed": false,
          "internalType": "address",
          "name": "affiliate",
          "type": "address"
        }
      ],
      "name": "LogSponsorLinked",
      "type": "event"
    },
    {
      "anonymous": false,
      "inputs": [
        {
          "indexed": false,
          "internalType": "address",
          "name": "sponsor",
          "type": "address"
        },
        {
          "indexed": false,
          "internalType": "address",
          "name": "affiliate",
          "type": "address"
        },
        {
          "indexed": false,
          "internalType": "uint256",
          "name": "zoomReward",
          "type": "uint256"
        }
      ],
      "name": "LogSponsorReward",
      "type": "event"
    },
    {
      "anonymous": false,
      "inputs": [
        {
          "indexed": true,
          "internalType": "address",
          "name": "previousOwner",
          "type": "address"
        },
        {
          "indexed": true,
          "internalType": "address",
          "name": "newOwner",
          "type": "address"
        }
      ],
      "name": "OwnershipTransferred",
      "type": "event"
    },
    {
      "anonymous": false,
      "inputs": [
        {
          "indexed": false,
          "internalType": "address",
          "name": "account",
          "type": "address"
        }
      ],
      "name": "Paused",
      "type": "event"
    },
    {
      "anonymous": false,
      "inputs": [
        {
          "indexed": false,
          "internalType": "uint256",
          "name": "epic",
          "type": "uint256"
        },
        {
          "indexed": false,
          "internalType": "uint256",
          "name": "rare",
          "type": "uint256"
        },
        {
          "indexed": false,
          "internalType": "uint256",
          "name": "uncommon",
          "type": "uint256"
        },
        {
          "indexed": false,
          "internalType": "uint256",
          "name": "common",
          "type": "uint256"
        }
      ],
      "name": "Probs",
      "type": "event"
    },
    {
      "anonymous": false,
      "inputs": [
        {
          "indexed": true,
          "internalType": "address",
          "name": "from",
          "type": "address"
        },
        {
          "indexed": true,
          "internalType": "address",
          "name": "to",
          "type": "address"
        },
        {
          "indexed": true,
          "internalType": "uint256",
          "name": "tokenId",
          "type": "uint256"
        }
      ],
      "name": "Transfer",
      "type": "event"
    },
    {
      "anonymous": false,
      "inputs": [
        {
          "indexed": false,
          "internalType": "address",
          "name": "account",
          "type": "address"
        }
      ],
      "name": "Unpaused",
      "type": "event"
    },
    {
      "inputs": [
        {
          "internalType": "uint8",
          "name": "",
          "type": "uint8"
        },
        {
          "internalType": "uint256",
          "name": "",
          "type": "uint256"
        }
      ],
      "name": "allBoosterCardIds",
      "outputs": [
        {
          "internalType": "uint16",
          "name": "",
          "type": "uint16"
        }
      ],
      "stateMutability": "view",
      "type": "function",
      "constant": true
    },
    {
      "inputs": [
        {
          "internalType": "uint16",
          "name": "",
          "type": "uint16"
        }
      ],
      "name": "allCardTypes",
      "outputs": [
        {
          "internalType": "uint16",
          "name": "cardTypeId",
          "type": "uint16"
        },
        {
          "internalType": "string",
          "name": "name",
          "type": "string"
        },
        {
          "internalType": "string",
          "name": "set",
          "type": "string"
        },
        {
          "internalType": "uint8",
          "name": "assetType",
          "type": "uint8"
        },
        {
          "internalType": "uint8",
          "name": "notStoreOrBonus",
          "type": "uint8"
        },
        {
          "internalType": "uint8",
          "name": "rarity",
          "type": "uint8"
        },
        {
          "internalType": "uint16",
          "name": "totalAvailable",
          "type": "uint16"
        },
        {
          "internalType": "uint256",
          "name": "weiCost",
          "type": "uint256"
        },
        {
          "internalType": "uint256",
          "name": "buyZoom",
          "type": "uint256"
        },
        {
          "internalType": "uint256",
          "name": "sacrificeZoom",
          "type": "uint256"
        },
        {
          "internalType": "uint256",
          "name": "unlockZoom",
          "type": "uint256"
        },
        {
          "internalType": "uint8",
          "name": "cardLevel",
          "type": "uint8"
        }
      ],
      "stateMutability": "view",
      "type": "function",
      "constant": true
    },
    {
      "inputs": [
        {
          "internalType": "address",
          "name": "to",
          "type": "address"
        },
        {
          "internalType": "uint256",
          "name": "tokenId",
          "type": "uint256"
        }
      ],
      "name": "approve",
      "outputs": [],
      "stateMutability": "nonpayable",
      "type": "function"
    },
    {
      "inputs": [
        {
          "internalType": "address",
          "name": "",
          "type": "address"
        }
      ],
      "name": "authorizedContracts",
      "outputs": [
        {
          "internalType": "bool",
          "name": "",
          "type": "bool"
        }
      ],
      "stateMutability": "view",
      "type": "function",
      "constant": true
    },
    {
      "inputs": [
        {
          "internalType": "address",
          "name": "owner",
          "type": "address"
        }
      ],
      "name": "balanceOf",
      "outputs": [
        {
          "internalType": "uint256",
          "name": "",
          "type": "uint256"
        }
      ],
      "stateMutability": "view",
      "type": "function",
      "constant": true
    },
    {
      "inputs": [
        {
          "internalType": "uint256",
          "name": "",
          "type": "uint256"
        }
      ],
      "name": "baseProbability",
      "outputs": [
        {
          "internalType": "uint256",
          "name": "",
          "type": "uint256"
        }
      ],
      "stateMutability": "view",
      "type": "function",
      "constant": true
    },
    {
      "inputs": [
        {
          "internalType": "address",
          "name": "",
          "type": "address"
        }
      ],
      "name": "boosterCreditsOwned",
      "outputs": [
        {
          "internalType": "uint256",
          "name": "",
          "type": "uint256"
        }
      ],
      "stateMutability": "view",
      "type": "function",
      "constant": true
    },
    {
      "inputs": [
        {
          "internalType": "uint256",
          "name": "tokenId",
          "type": "uint256"
        }
      ],
      "name": "burn",
      "outputs": [],
      "stateMutability": "nonpayable",
      "type": "function"
    },
    {
      "inputs": [
        {
          "internalType": "uint256",
          "name": "zoomWager",
          "type": "uint256"
        }
      ],
      "name": "burnAndBoost",
      "outputs": [
        {
          "internalType": "uint256[7]",
          "name": "",
          "type": "uint256[7]"
        }
      ],
      "stateMutability": "nonpayable",
      "type": "function"
    },
    {
      "inputs": [
        {
          "internalType": "uint16",
          "name": "",
          "type": "uint16"
        }
      ],
      "name": "cardTypeToEdition",
      "outputs": [
        {
          "internalType": "uint256",
          "name": "",
          "type": "uint256"
        }
      ],
      "stateMutability": "view",
      "type": "function",
      "constant": true
    },
    {
      "inputs": [
        {
          "internalType": "address",
          "name": "",
          "type": "address"
        },
        {
          "internalType": "uint16",
          "name": "",
          "type": "uint16"
        }
      ],
      "name": "cardTypesOwned",
      "outputs": [
        {
          "internalType": "bool",
          "name": "",
          "type": "bool"
        }
      ],
      "stateMutability": "view",
      "type": "function",
      "constant": true
    },
    {
      "inputs": [
        {
          "internalType": "uint256",
          "name": "tokenId",
          "type": "uint256"
        }
      ],
      "name": "getApproved",
      "outputs": [
        {
          "internalType": "address",
          "name": "",
          "type": "address"
        }
      ],
      "stateMutability": "view",
      "type": "function",
      "constant": true
    },
    {
      "inputs": [
        {
          "internalType": "uint256",
          "name": "_tokenId",
          "type": "uint256"
        }
      ],
      "name": "getNFTData",
      "outputs": [
        {
          "internalType": "uint16",
          "name": "",
          "type": "uint16"
        },
        {
          "internalType": "uint256",
          "name": "",
          "type": "uint256"
        },
        {
          "internalType": "bool",
          "name": "",
          "type": "bool"
        }
      ],
      "stateMutability": "view",
      "type": "function",
      "constant": true
    },
    {
      "inputs": [
        {
          "internalType": "uint256",
          "name": "wager",
          "type": "uint256"
        }
      ],
      "name": "getProbs",
      "outputs": [
        {
          "internalType": "uint256",
          "name": "c",
          "type": "uint256"
        },
        {
          "internalType": "uint256",
          "name": "u",
          "type": "uint256"
        },
        {
          "internalType": "uint256",
          "name": "r",
          "type": "uint256"
        },
        {
          "internalType": "uint256",
          "name": "e",
          "type": "uint256"
        }
      ],
      "stateMutability": "nonpayable",
      "type": "function"
    },
    {
      "inputs": [],
      "name": "getTokensByRarity",
      "outputs": [
        {
          "internalType": "uint256",
          "name": "",
          "type": "uint256"
        },
        {
          "internalType": "uint256",
          "name": "",
          "type": "uint256"
        },
        {
          "internalType": "uint256",
          "name": "",
          "type": "uint256"
        },
        {
          "internalType": "uint256",
          "name": "",
          "type": "uint256"
        },
        {
          "internalType": "uint256",
          "name": "",
          "type": "uint256"
        },
        {
          "internalType": "uint256",
          "name": "",
          "type": "uint256"
        }
      ],
      "stateMutability": "view",
      "type": "function",
      "constant": true
    },
    {
      "inputs": [
        {
          "internalType": "address",
          "name": "owner",
          "type": "address"
        },
        {
          "internalType": "address",
          "name": "operator",
          "type": "address"
        }
      ],
      "name": "isApprovedForAll",
      "outputs": [
        {
          "internalType": "bool",
          "name": "",
          "type": "bool"
        }
      ],
      "stateMutability": "view",
      "type": "function",
      "constant": true
    },
    {
      "inputs": [
        {
          "internalType": "uint16",
          "name": "_cardTypeId",
          "type": "uint16"
        },
        {
          "internalType": "string",
          "name": "_cardTypeName",
          "type": "string"
        },
        {
          "internalType": "string",
          "name": "_set",
          "type": "string"
        },
        {
          "internalType": "uint8",
          "name": "_assetType",
          "type": "uint8"
        },
        {
          "internalType": "uint8",
          "name": "_notStoreOrBonus",
          "type": "uint8"
        },
        {
          "internalType": "uint8",
          "name": "_rarity",
          "type": "uint8"
        },
        {
          "internalType": "uint16",
          "name": "_totalAvailable",
          "type": "uint16"
        },
        {
          "internalType": "uint256",
          "name": "_weiCost",
          "type": "uint256"
        },
        {
          "internalType": "uint256",
          "name": "_buyZoom",
          "type": "uint256"
        },
        {
          "internalType": "uint256",
          "name": "_sacrificeZoom",
          "type": "uint256"
        },
        {
          "internalType": "uint256",
          "name": "_unlockZoom",
          "type": "uint256"
        },
        {
          "internalType": "uint8",
          "name": "_cardLevel",
          "type": "uint8"
        }
      ],
      "name": "loadNewCardType",
      "outputs": [],
      "stateMutability": "nonpayable",
      "type": "function"
    },
    {
      "inputs": [],
      "name": "name",
      "outputs": [
        {
          "internalType": "string",
          "name": "",
          "type": "string"
        }
      ],
      "stateMutability": "view",
      "type": "function",
      "constant": true
    },
    {
      "inputs": [
        {
          "internalType": "uint256",
          "name": "",
          "type": "uint256"
        }
      ],
      "name": "nfts",
      "outputs": [
        {
          "internalType": "uint16",
          "name": "cardTypeId",
          "type": "uint16"
        },
        {
          "internalType": "uint256",
          "name": "editionNumber",
          "type": "uint256"
        },
        {
          "internalType": "bool",
          "name": "isFoil",
          "type": "bool"
        }
      ],
      "stateMutability": "view",
      "type": "function",
      "constant": true
    },
    {
      "inputs": [],
      "name": "owner",
      "outputs": [
        {
          "internalType": "address",
          "name": "",
          "type": "address"
        }
      ],
      "stateMutability": "view",
      "type": "function",
      "constant": true
    },
    {
      "inputs": [
        {
          "internalType": "uint256",
          "name": "tokenId",
          "type": "uint256"
        }
      ],
      "name": "ownerOf",
      "outputs": [
        {
          "internalType": "address",
          "name": "",
          "type": "address"
        }
      ],
      "stateMutability": "view",
      "type": "function",
      "constant": true
    },
    {
      "inputs": [],
      "name": "pause",
      "outputs": [],
      "stateMutability": "nonpayable",
      "type": "function"
    },
    {
      "inputs": [],
      "name": "paused",
      "outputs": [
        {
          "internalType": "bool",
          "name": "",
          "type": "bool"
        }
      ],
      "stateMutability": "view",
      "type": "function",
      "constant": true
    },
    {
      "inputs": [],
      "name": "renounceOwnership",
      "outputs": [],
      "stateMutability": "nonpayable",
      "type": "function"
    },
    {
      "inputs": [
        {
          "internalType": "address",
          "name": "from",
          "type": "address"
        },
        {
          "internalType": "address",
          "name": "to",
          "type": "address"
        },
        {
          "internalType": "uint256",
          "name": "tokenId",
          "type": "uint256"
        }
      ],
      "name": "safeTransferFrom",
      "outputs": [],
      "stateMutability": "nonpayable",
      "type": "function"
    },
    {
      "inputs": [
        {
          "internalType": "address",
          "name": "from",
          "type": "address"
        },
        {
          "internalType": "address",
          "name": "to",
          "type": "address"
        },
        {
          "internalType": "uint256",
          "name": "tokenId",
          "type": "uint256"
        },
        {
          "internalType": "bytes",
          "name": "data",
          "type": "bytes"
        }
      ],
      "name": "safeTransferFrom",
      "outputs": [],
      "stateMutability": "nonpayable",
      "type": "function"
    },
    {
      "inputs": [
        {
          "internalType": "address",
          "name": "operator",
          "type": "address"
        },
        {
          "internalType": "bool",
          "name": "approved",
          "type": "bool"
        }
      ],
      "name": "setApprovalForAll",
      "outputs": [],
      "stateMutability": "nonpayable",
      "type": "function"
    },
    {
      "inputs": [
        {
          "internalType": "uint16",
          "name": "_cardTypeId",
          "type": "uint16"
        },
        {
          "internalType": "uint256",
          "name": "_hoursFromNow",
          "type": "uint256"
        }
      ],
      "name": "setStoreRelease",
      "outputs": [],
      "stateMutability": "nonpayable",
      "type": "function"
    },
    {
      "inputs": [
        {
          "internalType": "address",
          "name": "",
          "type": "address"
        }
      ],
      "name": "sponsors",
      "outputs": [
        {
          "internalType": "address",
          "name": "",
          "type": "address"
        }
      ],
      "stateMutability": "view",
      "type": "function",
      "constant": true
    },
    {
      "inputs": [
        {
          "internalType": "uint16",
          "name": "",
          "type": "uint16"
        }
      ],
      "name": "storeReleaseTime",
      "outputs": [
        {
          "internalType": "uint256",
          "name": "",
          "type": "uint256"
        }
      ],
      "stateMutability": "view",
      "type": "function",
      "constant": true
    },
    {
      "inputs": [],
      "name": "symbol",
      "outputs": [
        {
          "internalType": "string",
          "name": "",
          "type": "string"
        }
      ],
      "stateMutability": "view",
      "type": "function",
      "constant": true
    },
    {
      "inputs": [
        {
          "internalType": "uint256",
          "name": "index",
          "type": "uint256"
        }
      ],
      "name": "tokenByIndex",
      "outputs": [
        {
          "internalType": "uint256",
          "name": "",
          "type": "uint256"
        }
      ],
      "stateMutability": "view",
      "type": "function",
      "constant": true
    },
    {
      "inputs": [
        {
          "internalType": "address",
          "name": "owner",
          "type": "address"
        },
        {
          "internalType": "uint256",
          "name": "index",
          "type": "uint256"
        }
      ],
      "name": "tokenOfOwnerByIndex",
      "outputs": [
        {
          "internalType": "uint256",
          "name": "",
          "type": "uint256"
        }
      ],
      "stateMutability": "view",
      "type": "function",
      "constant": true
    },
    {
      "inputs": [
        {
          "internalType": "uint256",
          "name": "tokenId",
          "type": "uint256"
        }
      ],
      "name": "tokenURI",
      "outputs": [
        {
          "internalType": "string",
          "name": "",
          "type": "string"
        }
      ],
      "stateMutability": "view",
      "type": "function",
      "constant": true
    },
    {
      "inputs": [
        {
          "internalType": "uint256",
          "name": "",
          "type": "uint256"
        }
      ],
      "name": "tokensByRarity",
      "outputs": [
        {
          "internalType": "uint256",
          "name": "",
          "type": "uint256"
        }
      ],
      "stateMutability": "view",
      "type": "function",
      "constant": true
    },
    {
      "inputs": [],
      "name": "totalBoostersRewarded",
      "outputs": [
        {
          "internalType": "uint256",
          "name": "",
          "type": "uint256"
        }
      ],
      "stateMutability": "view",
      "type": "function",
      "constant": true
    },
    {
      "inputs": [],
      "name": "totalCardTypes",
      "outputs": [
        {
          "internalType": "uint16",
          "name": "",
          "type": "uint16"
        }
      ],
      "stateMutability": "view",
      "type": "function",
      "constant": true
    },
    {
      "inputs": [
        {
          "internalType": "address",
          "name": "",
          "type": "address"
        }
      ],
      "name": "totalSacrificed",
      "outputs": [
        {
          "internalType": "uint256",
          "name": "",
          "type": "uint256"
        }
      ],
      "stateMutability": "view",
      "type": "function",
      "constant": true
    },
    {
      "inputs": [],
      "name": "totalSupply",
      "outputs": [
        {
          "internalType": "uint256",
          "name": "",
          "type": "uint256"
        }
      ],
      "stateMutability": "view",
      "type": "function",
      "constant": true
    },
    {
      "inputs": [
        {
          "internalType": "address",
          "name": "from",
          "type": "address"
        },
        {
          "internalType": "address",
          "name": "to",
          "type": "address"
        },
        {
          "internalType": "uint256",
          "name": "tokenId",
          "type": "uint256"
        }
      ],
      "name": "transferFrom",
      "outputs": [],
      "stateMutability": "nonpayable",
      "type": "function"
    },
    {
      "inputs": [
        {
          "internalType": "address",
          "name": "newOwner",
          "type": "address"
        }
      ],
      "name": "transferOwnership",
      "outputs": [],
      "stateMutability": "nonpayable",
      "type": "function"
    },
    {
      "inputs": [],
      "name": "unpause",
      "outputs": [],
      "stateMutability": "nonpayable",
      "type": "function"
    },
    {
      "inputs": [],
      "name": "weiCostOfBooster",
      "outputs": [
        {
          "internalType": "uint256",
          "name": "",
          "type": "uint256"
        }
      ],
      "stateMutability": "view",
      "type": "function",
      "constant": true
    },
    {
      "inputs": [],
      "name": "zoomTokenContract",
      "outputs": [
        {
          "internalType": "address",
          "name": "",
          "type": "address"
        }
      ],
      "stateMutability": "view",
      "type": "function",
      "constant": true
    },
    {
      "inputs": [],
      "name": "zoomValuePerBoosterCredit",
      "outputs": [
        {
          "internalType": "uint256",
          "name": "",
          "type": "uint256"
        }
      ],
      "stateMutability": "view",
      "type": "function",
      "constant": true
    },
    {
      "inputs": [
        {
          "internalType": "uint16",
          "name": "_cardTypeId",
          "type": "uint16"
        }
      ],
      "name": "buyCard",
      "outputs": [],
      "stateMutability": "payable",
      "type": "function",
      "payable": true
    },
    {
      "inputs": [
        {
          "internalType": "uint16",
          "name": "_cardTypeId",
          "type": "uint16"
        }
      ],
      "name": "getFreeCard",
      "outputs": [],
      "stateMutability": "payable",
      "type": "function",
      "payable": true
    },
    {
      "inputs": [
        {
          "internalType": "uint256[]",
          "name": "_tokenIds",
          "type": "uint256[]"
        }
      ],
      "name": "sacrificeNFTs",
      "outputs": [],
      "stateMutability": "nonpayable",
      "type": "function"
    },
    {
      "inputs": [],
      "name": "getBonusBoosters",
      "outputs": [],
      "stateMutability": "nonpayable",
      "type": "function"
    },
    {
      "inputs": [
        {
          "internalType": "address",
          "name": "_mySponsor",
          "type": "address"
        }
      ],
      "name": "linkMySponsor",
      "outputs": [],
      "stateMutability": "nonpayable",
      "type": "function"
    },
    {
      "inputs": [
        {
          "internalType": "uint256",
          "name": "_amount",
          "type": "uint256"
        }
      ],
      "name": "buyBoosterCredits",
      "outputs": [
        {
          "internalType": "bool",
          "name": "",
          "type": "bool"
        }
      ],
      "stateMutability": "payable",
      "type": "function",
      "payable": true
    },
    {
      "inputs": [],
      "name": "buyBoosterAndMintNFT",
      "outputs": [
        {
          "internalType": "bool",
          "name": "",
          "type": "bool"
        }
      ],
      "stateMutability": "payable",
      "type": "function",
      "payable": true
    },
    {
      "inputs": [
        {
          "internalType": "uint256",
          "name": "zoomWager",
          "type": "uint256"
        }
      ],
      "name": "mintBoosterNFT",
      "outputs": [
        {
          "internalType": "bool",
          "name": "",
          "type": "bool"
        }
      ],
      "stateMutability": "nonpayable",
      "type": "function"
    },
    {
      "inputs": [
        {
          "internalType": "address",
          "name": "_winner",
          "type": "address"
        },
        {
          "internalType": "uint8",
          "name": "_amount",
          "type": "uint8"
        }
      ],
      "name": "awardBoosterCredits",
      "outputs": [
        {
          "internalType": "bool",
          "name": "",
          "type": "bool"
        }
      ],
      "stateMutability": "nonpayable",
      "type": "function"
    },
    {
      "inputs": [
        {
          "internalType": "bytes4",
          "name": "interfaceId",
          "type": "bytes4"
        }
      ],
      "name": "supportsInterface",
      "outputs": [
        {
          "internalType": "bool",
          "name": "",
          "type": "bool"
        }
      ],
      "stateMutability": "view",
      "type": "function",
      "constant": true
    },
    {
      "inputs": [
        {
          "internalType": "address",
          "name": "_player",
          "type": "address"
        }
      ],
      "name": "getTimeToDailyBonus",
      "outputs": [
        {
          "internalType": "uint256",
          "name": "timeStamp",
          "type": "uint256"
        }
      ],
      "stateMutability": "view",
      "type": "function",
      "constant": true
    },
    {
      "inputs": [
        {
          "internalType": "address",
          "name": "_receiverWallet",
          "type": "address"
        }
      ],
      "name": "mintDiamond",
      "outputs": [],
      "stateMutability": "nonpayable",
      "type": "function"
    },
    {
      "inputs": [],
      "name": "withdraw",
      "outputs": [
        {
          "internalType": "bool",
          "name": "",
          "type": "bool"
        }
      ],
      "stateMutability": "nonpayable",
      "type": "function"
    },
    {
      "inputs": [
        {
          "internalType": "address",
          "name": "_newZoombiesService",
          "type": "address"
        },
        {
          "internalType": "bool",
          "name": "_isAuthorized",
          "type": "bool"
        }
      ],
      "name": "setAuthorizedContract",
      "outputs": [],
      "stateMutability": "nonpayable",
      "type": "function"
    },
    {
      "inputs": [
        {
          "internalType": "uint256",
          "name": "_newWeiCost",
          "type": "uint256"
        }
      ],
      "name": "updateCostOfBooster",
      "outputs": [],
      "stateMutability": "nonpayable",
      "type": "function"
    }
  ],
  "bytecode": "0x600e805461ffff191690556101606040526000608081815260a082905260c082905260e08290526101008290526101208290526101409190915262000049906010906007620001fc565b506005601a556040805160e08101825260008082526020820181905291810191909152600160608201526101f46080820152610dac60a082015261271060c08201526200009b90601b90600762000244565b50670de0b6b3a76400006028556000602955348015620000ba57600080fd5b506040516200525338038062005253833981016040819052620000dd916200030f565b60408051808201825260088152675a6f6f6d6269657360c01b6020808301918252835180850190945260078452665a6f6f6d62696560c81b9084015281519192916200012c916000916200027b565b508051620001429060019060208401906200027b565b5050506200015f62000159620001a660201b60201c565b620001aa565b600a805460ff60a01b191690556001600160a01b0381166200018057600080fd5b600b80546001600160a01b0319166001600160a01b03929092169190911790556200037e565b3390565b600a80546001600160a01b038381166001600160a01b0319831681179093556040519116919082907f8be0079c531659141344cd1fd0a4f28419497f9722a3daafe3b4186f6b6457e090600090a35050565b826007810192821562000232579160200282015b8281111562000232578251829060ff1690559160200191906001019062000210565b5062000240929150620002f8565b5090565b826007810192821562000232579160200282015b8281111562000232578251829061ffff1690559160200191906001019062000258565b828054620002899062000341565b90600052602060002090601f016020900481019282620002ad576000855562000232565b82601f10620002c857805160ff191683800117855562000232565b8280016001018555821562000232579182015b8281111562000232578251825591602001919060010190620002db565b5b80821115620002405760008155600101620002f9565b6000602082840312156200032257600080fd5b81516001600160a01b03811681146200033a57600080fd5b9392505050565b600181811c908216806200035657607f821691505b602082108114156200037857634e487b7160e01b600052602260045260246000fd5b50919050565b614ec5806200038e6000396000f3fe6080604052600436106103975760003560e01c80638456cb59116101dc578063cc99b5cd11610102578063ed6ae3b8116100a0578063f34d70071161006f578063f34d700714610b9b578063f6856f1814610bc8578063f8ae951114610bde578063f902803514610bfe57600080fd5b8063ed6ae3b814610b28578063ef73cc6614610b3b578063f2fa739214610b5b578063f2fde38b14610b7b57600080fd5b8063d7272116116100dc578063d727211614610a67578063e618f83214610a9f578063e985e9c514610abf578063eade9e1814610b0857600080fd5b8063cc99b5cd146109e1578063d35590c214610a01578063d5b9221b14610a3757600080fd5b8063ae4cf4921161017a578063b86709ca11610149578063b86709ca14610961578063b88d4fde14610981578063ba721f02146109a1578063c87b56dd146109c157600080fd5b8063ae4cf492146108bf578063aec29b8b146108d2578063afa615411461090d578063b7e357a61461095957600080fd5b8063912fdfcb116101b6578063912fdfcb1461084a57806395d89b411461086a578063993011d91461087f578063a22cb4651461089f57600080fd5b80638456cb59146107d75780638adb7086146107ec5780638da5cb5b1461082c57600080fd5b80633ccfd60b116102c15780635c975abb1161025f57806370a082311161022e57806370a082311461076d578063715018a61461078d5780637a93696a146107a25780637bbbe390146107c257600080fd5b80635c975abb146106eb5780636352211e1461070a5780636501139a1461072a5780636c930c1d1461075757600080fd5b806342966c681161029b57806342966c681461065e5780634d3e2e5e1461067e5780634f6ccce71461069e57806350a59fa0146106be57600080fd5b80633ccfd60b146106145780633f4ba83a1461062957806342842e0e1461063e57600080fd5b806316f73cde1161033957806323b872dd1161030857806323b872dd14610563578063265aa621146105835780632f745c59146105c75780633a851acd146105e757600080fd5b806316f73cde146104dd57806318160ddd1461051857806318b518851461052d5780631db18cf91461054d57600080fd5b8063095ea7b311610375578063095ea7b31461042b5780630ad4c4f41461044d5780630ef635091461048f57806312a1bf58146104bd57600080fd5b806301ffc9a71461039c57806306fdde03146103d1578063081812fc146103f3575b600080fd5b3480156103a857600080fd5b506103bc6103b736600461447f565b610c11565b60405190151581526020015b60405180910390f35b3480156103dd57600080fd5b506103e6610c22565b6040516103c891906144f4565b3480156103ff57600080fd5b5061041361040e366004614507565b610cb4565b6040516001600160a01b0390911681526020016103c8565b34801561043757600080fd5b5061044b610446366004614537565b610cdb565b005b34801561045957600080fd5b5061046d610468366004614507565b610df6565b6040805161ffff909416845260208401929092521515908201526060016103c8565b34801561049b57600080fd5b50600e546104aa9061ffff1681565b60405161ffff90911681526020016103c8565b3480156104c957600080fd5b5061044b6104d83660046145a8565b610e48565b3480156104e957600080fd5b5061050a6104f8366004614660565b600f6020526000908152604090205481565b6040519081526020016103c8565b34801561052457600080fd5b5060085461050a565b34801561053957600080fd5b50600b54610413906001600160a01b031681565b34801561055957600080fd5b5061050a60285481565b34801561056f57600080fd5b5061044b61057e36600461467b565b611100565b34801561058f57600080fd5b5061046d61059e366004614507565b60196020526000908152604090208054600182015460029092015461ffff909116919060ff1683565b3480156105d357600080fd5b5061050a6105e2366004614537565b611132565b3480156105f357600080fd5b5061050a6106023660046146b7565b60276020526000908152604090205481565b34801561062057600080fd5b506103bc6111c8565b34801561063557600080fd5b5061044b611206565b34801561064a57600080fd5b5061044b61065936600461467b565b611218565b34801561066a57600080fd5b5061044b610679366004614507565b611233565b34801561068a57600080fd5b5061050a610699366004614507565b611264565b3480156106aa57600080fd5b5061050a6106b9366004614507565b61127b565b3480156106ca57600080fd5b506106de6106d9366004614507565b61130e565b6040516103c891906146d2565b3480156106f757600080fd5b50600a54600160a01b900460ff166103bc565b34801561071657600080fd5b50610413610725366004614507565b6113a6565b34801561073657600080fd5b5061050a6107453660046146b7565b60256020526000908152604090205481565b34801561076357600080fd5b5061050a6101f481565b34801561077957600080fd5b5061050a6107883660046146b7565b611406565b34801561079957600080fd5b5061044b61148c565b3480156107ae57600080fd5b506103bc6107bd366004614507565b61149e565b3480156107ce57600080fd5b5061044b61161c565b3480156107e357600080fd5b5061044b6116fe565b3480156107f857600080fd5b5061080c610807366004614507565b61170e565b6040805194855260208501939093529183015260608201526080016103c8565b34801561083857600080fd5b50600a546001600160a01b0316610413565b34801561085657600080fd5b5061044b6108653660046146b7565b6117ea565b34801561087657600080fd5b506103e6611880565b34801561088b57600080fd5b506103bc61089a366004614714565b61188f565b3480156108ab57600080fd5b5061044b6108ba366004614747565b611930565b61044b6108cd366004614660565b61193b565b3480156108de57600080fd5b506103bc6108ed366004614783565b601760209081526000928352604080842090915290825290205460ff1681565b34801561091957600080fd5b50601154601254601354601454601554601654604080519687526020870195909552938501929092526060840152608083015260a082015260c0016103c8565b6103bc611c53565b34801561096d57600080fd5b5061044b61097c3660046147ad565b611d32565b34801561098d57600080fd5b5061044b61099c366004614821565b611edb565b3480156109ad57600080fd5b5061044b6109bc366004614507565b611f13565b3480156109cd57600080fd5b506103e66109dc366004614507565b611f63565b3480156109ed57600080fd5b5061044b6109fc3660046148bd565b611fca565b348015610a0d57600080fd5b50610413610a1c3660046146b7565b6023602052600090815260409020546001600160a01b031681565b348015610a4357600080fd5b506103bc610a523660046146b7565b60266020526000908152604090205460ff1681565b348015610a7357600080fd5b50610a87610a82366004614660565b6125a7565b6040516103c89c9b9a999897969594939291906149b7565b348015610aab57600080fd5b5061050a610aba366004614507565b612726565b348015610acb57600080fd5b506103bc610ada366004614a4c565b6001600160a01b03918216600090815260056020908152604080832093909416825291909152205460ff1690565b348015610b1457600080fd5b5061044b610b233660046146b7565b612736565b61044b610b36366004614660565b612809565b348015610b4757600080fd5b506104aa610b56366004614a76565b612b5d565b348015610b6757600080fd5b5061044b610b76366004614747565b612ba4565b348015610b8757600080fd5b5061044b610b963660046146b7565b612c23565b348015610ba757600080fd5b5061050a610bb6366004614660565b60186020526000908152604090205481565b348015610bd457600080fd5b5061050a60295481565b348015610bea57600080fd5b5061050a610bf93660046146b7565b612c99565b6103bc610c0c366004614507565b612ce2565b6000610c1c82612dbd565b92915050565b606060008054610c3190614a92565b80601f0160208091040260200160405190810160405280929190818152602001828054610c5d90614a92565b8015610caa5780601f10610c7f57610100808354040283529160200191610caa565b820191906000526020600020905b815481529060010190602001808311610c8d57829003601f168201915b5050505050905090565b6000610cbf82612de2565b506000908152600460205260409020546001600160a01b031690565b6000610ce6826113a6565b9050806001600160a01b0316836001600160a01b03161415610d595760405162461bcd60e51b815260206004820152602160248201527f4552433732313a20617070726f76616c20746f2063757272656e74206f776e656044820152603960f91b60648201526084015b60405180910390fd5b336001600160a01b0382161480610d755750610d758133610ada565b610de75760405162461bcd60e51b815260206004820152603d60248201527f4552433732313a20617070726f76652063616c6c6572206973206e6f7420746f60448201527f6b656e206f776e6572206f7220617070726f76656420666f7220616c6c0000006064820152608401610d50565b610df18383612e41565b505050565b600081815260026020526040812054819081906001600160a01b0316610e1b57600080fd5b50505060009081526019602052604090208054600182015460029092015461ffff9091169260ff90911690565b61010081511115610ec15760405162461bcd60e51b815260206004820152603b60248201527f4c697374206f6620746f6b656e7320746f20736163726966696365206d75737460448201527f206265206c657373207468616e2032353720617420612074696d6500000000006064820152608401610d50565b6000805b82518110156110e857610ef0838281518110610ee357610ee3614acd565b6020026020010151611233565b600060196000858481518110610f0857610f08614acd565b602090810291909101810151825281810192909252604090810160009081205461ffff16808252600c909352206003015490915060019060109062010000900460ff1660078110610f5b57610f5b614acd565b016000828254610f6b9190614af9565b909155505061ffff81166000908152600c6020526040902060060154610f919084614b10565b925060196000858481518110610fa957610fa9614acd565b60209081029190910181015182528181019290925260409081016000908120805461ffff1916815560018082018390556002909101805460ff1916905533825260279093529081208054909190611001908490614b10565b909155507f9f73ada08f3befbf7c267eb29f7bed0d515e17795d4bb785cdddbb4ee4bd2d9d90503385848151811061103b5761103b614acd565b602002602001015183600c60008661ffff1661ffff168152602001908152602001600020600601546027600061106e3390565b6001600160a01b03166001600160a01b03168152602001908152602001600020546040516110cd9594939291906001600160a01b03959095168552602085019390935261ffff9190911660408401526060830152608082015260a00190565b60405180910390a150806110e081614b28565b915050610ec5565b506110f33382612eaf565b6110fc81612f35565b5050565b61110b335b82612fe6565b6111275760405162461bcd60e51b8152600401610d5090614b43565b610df1838383613065565b600061113d83611406565b821061119f5760405162461bcd60e51b815260206004820152602b60248201527f455243373231456e756d657261626c653a206f776e657220696e646578206f7560448201526a74206f6620626f756e647360a81b6064820152608401610d50565b506001600160a01b03919091166000908152600660209081526040808320938352929052205490565b60006111d26131d6565b60405133904780156108fc02916000818181858888f193505050501580156111fe573d6000803e3d6000fd5b506001905090565b61120e6131d6565b611216613230565b565b610df183838360405180602001604052806000815250611edb565b61123c33611105565b6112585760405162461bcd60e51b8152600401610d5090614b43565b61126181613280565b50565b6010816007811061127457600080fd5b0154905081565b600061128660085490565b82106112e95760405162461bcd60e51b815260206004820152602c60248201527f455243373231456e756d657261626c653a20676c6f62616c20696e646578206f60448201526b7574206f6620626f756e647360a01b6064820152608401610d50565b600882815481106112fc576112fc614acd565b90600052602060002001549050919050565b6113166143b2565b81611350576040805160e081019182905290601b9060079082845b8154815260200190600101908083116113315750505050509050919050565b60008060008061135f8661170e565b6040805160e081018252600080825260208201819052918101919091526060810191909152608081019190915260a081019190915260c08101919091529695505050505050565b6000818152600260205260408120546001600160a01b031680610c1c5760405162461bcd60e51b8152602060048201526018602482015277115490cdcc8c4e881a5b9d985b1a59081d1bdad95b88125160421b6044820152606401610d50565b60006001600160a01b0382166114705760405162461bcd60e51b815260206004820152602960248201527f4552433732313a2061646472657373207a65726f206973206e6f7420612076616044820152683634b21037bbb732b960b91b6064820152608401610d50565b506001600160a01b031660009081526003602052604090205490565b6114946131d6565b6112166000613323565b336000908152602560205260408120546114fa5760405162461bcd60e51b815260206004820152601860248201527f4e6f20426f6f737465722063726564697473206f776e656400000000000000006044820152606401610d50565b8115806115195750620f4240821015801561151957506301312d008211155b6115735760405162461bcd60e51b815260206004820152602560248201527f5761676572206d7573742062652030206f72206265747765656e207468616e20604482015264312d32304d60d81b6064820152608401610d50565b336000908152602560205260408120805460019290611593908490614af9565b909155506115a59050336101f4613375565b60006115b083613399565b9050600160005b81156115d8576115c6836135f8565b905080156115d357600091505b6115b7565b6040805160ff85168152905133917f9110cd00ebf5075b22eead1dbb6c4f4c5b7bd329bc646333c004dfb9e8c21f0b919081900360200190a2506001949350505050565b61162533612c99565b4210156116745760405162461bcd60e51b815260206004820152601d60248201527f546f6f206561726c7920746f20636c61696d206e65787420626f6e75730000006044820152606401610d50565b61168042617080614b10565b33600090815260246020908152604080832093909355602590529081208054600192906116ae908490614b10565b909155505033600081815260256020908152604091829020548251938452908301527fdea0c85af515c9fffcca886846213edc28206526b243af2f064b6962032ce18591015b60405180910390a1565b6117066131d6565b6112166136e9565b6000808080611725670de0b6b3a764000086614ba6565b9450611733614e2086614ba6565b601e546117409190614b10565b905061174e61157c86614ba6565b601f5461175b9083614b10565b6117659190614b10565b9150611773611f4086614ba6565b6020546117809084614b10565b61178a9190614b10565b925061179883612710614b10565b6040805183815260208101859052908101859052606081018290529094507f898559e312cc80d45bb534f3345ad1ef7addb23ca6347b06e71ae5ca8b52eaa49060800160405180910390a19193509193565b33600090815260236020526040812080546001600160a01b0319166001600160a01b0384161790556001905b81156118385761182660026135f8565b9050801561183357600091505b611816565b604080516001600160a01b038516815233602082015281517fae0e6a0647510165444e35f4e1fa484c98bdb58988c4770c3bfe61b369114ecb929181900390910190a1505050565b606060018054610c3190614a92565b60006118996131d6565b8160ff16602960008282546118ae9190614b10565b90915550506001600160a01b0383166000908152602560205260408120805460ff851692906118de908490614b10565b9091555050604080516001600160a01b038516815260ff841660208201527f0db7c2749c43f1a3f16904833bf2cf21b6f6e675613def2bd07ec6b2de65bf8b910160405180910390a150600192915050565b6110fc33838361372c565b61ffff8082166000908152600c60205260409020541661199d5760405162461bcd60e51b815260206004820152601b60248201527f43617264207479706520494420646f6573206e6f7420657869737400000000006044820152606401610d50565b61ffff81166000908152600c6020526040902060030154610100900460ff16156119d95760405162461bcd60e51b8152600401610d5090614bba565b61ffff81166000908152600f6020526040902054421015611a3c5760405162461bcd60e51b815260206004820152601b60248201527f43617264206e6f742072656c65617365642066726f6d2073686f7000000000006044820152606401610d50565b61ffff8116600090815260186020526040902054611a5b906001614b10565b61ffff8083166000908152600c602052604090206003015463010000009004161015611a995760405162461bcd60e51b8152600401610d5090614bfd565b61ffff81166000908152600c6020526040902060040154341015611b175760405162461bcd60e51b815260206004820152602f60248201527f596f752068617665206e6f74207061696420656e6f75676820474c4d5220746f60448201526e206d696e742074686973207479706560881b6064820152608401610d50565b61ffff81166000908152600c6020526040902060040154611b39906003614c40565b341015611c0a5733600090815260176020908152604080832061ffff8516845290915290205460ff1615611b7f5760405162461bcd60e51b8152600401610d5090614c5f565b611b9f3361ffff83166000908152600c60205260409020600701546137fb565b15611c0a5760405162461bcd60e51b815260206004820152603560248201527f5a6f6f6d53636f7265206e6f7420656e6f75676820746f20756e6c6f636b2070604482015274726963652c2075736520337820466173745061737360581b6064820152608401610d50565b611c2a3361ffff83166000908152600c6020526040902060050154612eaf565b61ffff81166000908152600c6020526040902060050154611c4a90612f35565b6110fc816138a7565b60006028543414611ca65760405162461bcd60e51b815260206004820181905260248201527f4e6f7420656e6f75676820474c4d5220746f20627579206120426f6f737465726044820152606401610d50565b611cb13360c8612eaf565b611cbb60c8612f35565b6000611cc76000613399565b9050600160005b8115611cef57611cdd836135f8565b90508015611cea57600091505b611cce565b6040805160ff85168152905133917f9110cd00ebf5075b22eead1dbb6c4f4c5b7bd329bc646333c004dfb9e8c21f0b919081900360200190a26001935050505090565b611d3a6131d6565b61ffff8083166000818152600c602052604090205490911614611daa5760405162461bcd60e51b815260206004820152602260248201527f546869732063617264547970654964206973206e6f7420646566696e65642079604482015261195d60f21b6064820152608401610d50565b61088e811115611e2d5760405162461bcd60e51b815260206004820152604260248201527f686f75727346726f6d4e6f77206d757374206265206120706f7369746976652060448201527f6e756d62657220616e64206c657373207468616e206f7220657175616c203231606482015261039360f41b608482015260a401610d50565b61ffff82166000908152600f6020526040902054421115611eaa5760405162461bcd60e51b815260206004820152603160248201527f43616e206f6e6c79206368616e67652072656c656173652074696d6573206f6e60448201527020556e72656c656173656420636172647360781b6064820152608401610d50565b611eb681610e10614c40565b611ec09042614b10565b61ffff9092166000908152600f602052604090209190915550565b611ee53383612fe6565b611f015760405162461bcd60e51b8152600401610d5090614b43565b611f0d84848484613a6b565b50505050565b611f1b6131d6565b60008111611f2857600080fd5b60288190556040518181527facbc3b358796d8784587c56cede83f0c924c70b33fa4e7b1aa0f521e2efcf1529060200160405180910390a150565b6060611f6e82612de2565b6000611f78613a9e565b90506000815111611f985760405180602001604052806000815250611fc3565b80611fa284613abe565b604051602001611fb3929190614ca0565b6040516020818303038152906040525b9392505050565b611fd26131d6565b61ffff808d166000908152600c602052604090205416156120525760405162461bcd60e51b815260206004820152603460248201527f4e6f7420616c6c6f77656420746f2075706461746520616e206578697374696e604482015273339031b0b9322a3cb832903232b334b734ba37b760611b6064820152608401610d50565b60008760ff16118015612068575060078760ff16105b6120b45760405162461bcd60e51b815260206004820152601e60248201527f526172697479206d757374206265206265747765656e203120616e64203600006044820152606401610d50565b60ff88161580156120c9575060018661ffff16105b156121255760405162461bcd60e51b815260206004820152602660248201527f496e2073746f7265207479706573206d757374206265206c696d6974656420656044820152653234ba34b7b760d11b6064820152608401610d50565b60ff8816158015612134575083155b156121905760405162461bcd60e51b815260206004820152602660248201527f496e2073746f7265207479706573206d7573742068617665206275795a6f6f6d6044820152652076616c756560d01b6064820152608401610d50565b60ff881615801561219f575081155b156121fe5760405162461bcd60e51b815260206004820152602960248201527f496e2073746f7265207479706573206d757374206861766520556e6c6f636b5a6044820152686f6f6d2076616c756560b81b6064820152608401610d50565b60008860ff161180156122115750600085115b156122685760405162461bcd60e51b815260206004820152602160248201527f426f6f737465722f426f6e7573206d6179204e4f542068617665206120636f736044820152601d60fa1b6064820152608401610d50565b61ffff8c166000818152600c60209081526040909120805461ffff191690921782558c5161229c92600101918e01906143d0565b5061ffff8c166000908152600c602090815260409091208b516122c7926002909201918d01906143d0565b5088600c60008e61ffff1661ffff16815260200190815260200160002060030160006101000a81548160ff021916908360ff16021790555087600c60008e61ffff1661ffff16815260200190815260200160002060030160016101000a81548160ff021916908360ff16021790555086600c60008e61ffff1661ffff16815260200190815260200160002060030160026101000a81548160ff021916908360ff16021790555085600c60008e61ffff1661ffff16815260200190815260200160002060030160036101000a81548161ffff021916908361ffff16021790555084600c60008e61ffff1661ffff1681526020019081526020016000206004018190555083600c60008e61ffff1661ffff1681526020019081526020016000206005018190555082600c60008e61ffff1661ffff1681526020019081526020016000206006018190555081600c60008e61ffff1661ffff1681526020019081526020016000206007018190555080600c60008e61ffff1661ffff16815260200190815260200160002060080160006101000a81548160ff021916908360ff160217905550600e600081819054906101000a900461ffff168092919061248990614ccf565b91906101000a81548161ffff021916908361ffff1602179055505060008860ff16111561253257600d60008860ff1660ff1681526020019081526020016000208c90806001815401808255809150506001900390600052602060002090601091828204019190066002029091909190916101000a81548161ffff021916908361ffff16021790555042600f60008e61ffff1661ffff168152602001908152602001600020819055505b60ff881661255b5761254642610258614b10565b61ffff8d166000908152600f60205260409020555b8b61ffff167f52204b9094557af9f8a8ee709aa750b43eb64f72efa29eed515495367b336e508c88604051612591929190614cf1565b60405180910390a2505050505050505050505050565b600c602052600090815260409020805460018201805461ffff90921692916125ce90614a92565b80601f01602080910402602001604051908101604052809291908181526020018280546125fa90614a92565b80156126475780601f1061261c57610100808354040283529160200191612647565b820191906000526020600020905b81548152906001019060200180831161262a57829003601f168201915b50505050509080600201805461265c90614a92565b80601f016020809104026020016040519081016040528092919081815260200182805461268890614a92565b80156126d55780601f106126aa576101008083540402835291602001916126d5565b820191906000526020600020905b8154815290600101906020018083116126b857829003601f168201915b50505060038401546004850154600586015460068701546007880154600890980154969760ff808616986101008704821698506201000087048216975061ffff63010000009097049690961695168c565b601b816007811061127457600080fd5b3360009081526026602052604090205460ff1615156001146127935760405162461bcd60e51b8152602060048201526016602482015275139bdd08185d5d1a1bdc9a5e9959081d1bc81b5a5b9d60521b6044820152606401610d50565b600160005b81156127ba576127a860016135f8565b905080156127b557600091505b612798565b6127c5338483613065565b604051600181526001600160a01b038416907f9110cd00ebf5075b22eead1dbb6c4f4c5b7bd329bc646333c004dfb9e8c21f0b9060200160405180910390a2505050565b61ffff8082166000908152600c60205260409020541661286b5760405162461bcd60e51b815260206004820152601b60248201527f43617264207479706520494420646f6573206e6f7420657869737400000000006044820152606401610d50565b61ffff81166000908152600c6020526040902060040154156128de5760405162461bcd60e51b815260206004820152602660248201527f596f752061726520617474656d7074696e6720746f206d696e7420612070616960448201526564207479706560d01b6064820152608401610d50565b61ffff81166000908152600c6020526040902060030154610100900460ff161561291a5760405162461bcd60e51b8152600401610d5090614bba565b61ffff81166000908152600f602052604090205442101561297d5760405162461bcd60e51b815260206004820152601b60248201527f43617264206e6f742072656c65617365642066726f6d2073686f7000000000006044820152606401610d50565b33600090815260176020908152604080832061ffff8516845290915290205460ff16156129bc5760405162461bcd60e51b8152600401610d5090614c5f565b61ffff81166000908152601860205260409020546129db906001614b10565b61ffff8083166000908152600c602052604090206003015463010000009004161015612a195760405162461bcd60e51b8152600401610d5090614bfd565b61ffff81166000908152600c6020526040812060070154612a3b906003614c40565b612a4d90670de0b6b3a7640000614c40565b9050612a5c620186a082614ba6565b905080341015612b5457612a863361ffff84166000908152600c60205260409020600701546137fb565b15612ac75760405162461bcd60e51b81526020600482015260116024820152705a6f6f6d53636f726520746f6f206c6f7760781b6044820152606401610d50565b612ae73361ffff84166000908152600c6020526040902060050154613b5b565b15612b345760405162461bcd60e51b815260206004820152601960248201527f4e6f7420656e6f756768205a4f4f4d20696e2077616c6c6574000000000000006044820152606401610d50565b612b543361ffff84166000908152600c6020526040902060050154613375565b610df1826138a7565b600d6020528160005260406000208181548110612b7957600080fd5b9060005260206000209060109182820401919006600202915091509054906101000a900461ffff1681565b612bac6131d6565b6001600160a01b038216612bbf57600080fd5b6001600160a01b038216600081815260266020908152604091829020805460ff19168515159081179091558251938452908301527fd11589dcfded6eb1c44f53dd2a53a531a64473e543f6d0ef1bb6a930604b071391015b60405180910390a15050565b612c2b6131d6565b6001600160a01b038116612c905760405162461bcd60e51b815260206004820152602660248201527f4f776e61626c653a206e6577206f776e657220697320746865207a65726f206160448201526564647265737360d01b6064820152608401610d50565b61126181613323565b6001600160a01b038116600090815260246020526040812054612cc157610c1c600242614af9565b506001600160a01b031660009081526024602052604090205490565b919050565b600081602854612cf29190614c40565b3414612d595760405162461bcd60e51b815260206004820152603060248201527f4e6f7420656e6f75676820474c4d5220746f206275792074686973206d616e7960448201526f20426f6f73746572204372656469747360801b6064820152608401610d50565b3360009081526025602052604081208054849290612d78908490614b10565b9091555060009050612d8d6101f460c8614b10565b9050612da233612d9d8584614c40565b612eaf565b612db4612daf8483614c40565b612f35565b50600192915050565b60006001600160e01b0319821663780e9d6360e01b1480610c1c5750610c1c82613ba3565b6000818152600260205260409020546001600160a01b03166112615760405162461bcd60e51b8152602060048201526018602482015277115490cdcc8c4e881a5b9d985b1a59081d1bdad95b88125160421b6044820152606401610d50565b600081815260046020526040902080546001600160a01b0319166001600160a01b0384169081179091558190612e76826113a6565b6001600160a01b03167f8c5be1e5ebec7d5bd14f71427d1e84f3dd0314c0f7b2291e5b200ac8c7c3b92560405160405180910390a45050565b600b546001600160a01b03166321af688983612ed384670de0b6b3a7640000614c40565b6040516001600160e01b031960e085901b1681526001600160a01b0390921660048301526024820152604401600060405180830381600087803b158015612f1957600080fd5b505af1158015612f2d573d6000803e3d6000fd5b505050505050565b336000908152602360205260409020546001600160a01b031615611261576000612f60600583614ba6565b905080612f6b575060015b33600090815260236020526040902054612f8e906001600160a01b031682612eaf565b336000818152602360209081526040918290205482516001600160a01b0390911681529081019290925281018290527e3da85d6058444eca57e3b88be14c734f4f239affe28b7629966e318de2a90e90606001612c17565b600080612ff2836113a6565b9050806001600160a01b0316846001600160a01b0316148061303957506001600160a01b0380821660009081526005602090815260408083209388168352929052205460ff165b8061305d5750836001600160a01b031661305284610cb4565b6001600160a01b0316145b949350505050565b826001600160a01b0316613078826113a6565b6001600160a01b03161461309e5760405162461bcd60e51b8152600401610d5090614d17565b6001600160a01b0382166131005760405162461bcd60e51b8152602060048201526024808201527f4552433732313a207472616e7366657220746f20746865207a65726f206164646044820152637265737360e01b6064820152608401610d50565b61310d8383836001613bf3565b826001600160a01b0316613120826113a6565b6001600160a01b0316146131465760405162461bcd60e51b8152600401610d5090614d17565b600081815260046020908152604080832080546001600160a01b03199081169091556001600160a01b0387811680865260038552838620805460001901905590871680865283862080546001019055868652600290945282852080549092168417909155905184937fddf252ad1be2c89b69c2b068fc378daa952ba7f163c4a11628f55a4df523b3ef91a4505050565b600a546001600160a01b031633146112165760405162461bcd60e51b815260206004820181905260248201527f4f776e61626c653a2063616c6c6572206973206e6f7420746865206f776e65726044820152606401610d50565b613238613c07565b600a805460ff60a01b191690557f5db9ee0a495bf2e6ff9c91a7834c1ba4fdd244a5e8aa4e537bd38aeae4b073aa335b6040516001600160a01b0390911681526020016116f4565b600061328b826113a6565b905061329b816000846001613bf3565b6132a4826113a6565b600083815260046020908152604080832080546001600160a01b03199081169091556001600160a01b0385168085526003845282852080546000190190558785526002909352818420805490911690555192935084927fddf252ad1be2c89b69c2b068fc378daa952ba7f163c4a11628f55a4df523b3ef908390a45050565b600a80546001600160a01b038381166001600160a01b0319831681179093556040519116919082907f8be0079c531659141344cd1fd0a4f28419497f9722a3daafe3b4186f6b6457e090600090a35050565b600b546001600160a01b03166336ec0dd683612ed384670de0b6b3a7640000614c40565b60006301312d008211156134075760405162461bcd60e51b815260206004820152602f60248201527f596f75206d757374207761676572206c657373207468616e207468652075707060448201526e6572206c696d6974206f662032304d60881b6064820152608401610d50565b61341982670de0b6b3a7640000614c40565b600b549092506000906001600160a01b03166370a08231336040516001600160e01b031960e084901b1681526001600160a01b03909116600482015260240160206040518083038186803b15801561347057600080fd5b505afa158015613484573d6000803e3d6000fd5b505050506040513d601f19601f820116820180604052508101906134a89190614d5c565b90508281101561350d5760405162461bcd60e51b815260206004820152602a60248201527f596f7520646f204e6f74206861766520656e6f756768205a4f4f4d20666f72206044820152693a3434b9903bb0b3b2b960b11b6064820152608401610d50565b821561358657600b546001600160a01b03166336ec0dd6336040516001600160e01b031960e084901b1681526001600160a01b03909116600482015260248101869052604401600060405180830381600087803b15801561356d57600080fd5b505af1158015613581573d6000803e3d6000fd5b505050505b6000613593612710613c57565b905060006135a08561130e565b905060025b60078160ff1610156135ec57818160ff16600781106135c6576135c6614acd565b602002015183116135da5795945050505050565b806135e481614d75565b9150506135a5565b50600695945050505050565b60ff81166000908152600d6020526040812054819061361690613c57565b60ff84166000908152600d60205260408120805492935090918390811061363f5761363f614acd565b60009182526020808320601083040154600f9092166002026101000a90910461ffff908116808452600c9092526040909220600301549092506301000000900416158015906136c6575061ffff8082166000908152600c60209081526040808320600301546018909252909120546301000000909104909116906136c4906001614b10565b115b156136d5575060009392505050565b60006136e0826138a7565b95945050505050565b6136f1613cd6565b600a805460ff60a01b1916600160a01b1790557f62e78cea01bee320cd4e420270b5ea74000d11b0c9f74754ebdbfc544b05a2586132683390565b816001600160a01b0316836001600160a01b0316141561378e5760405162461bcd60e51b815260206004820152601960248201527f4552433732313a20617070726f766520746f2063616c6c6572000000000000006044820152606401610d50565b6001600160a01b03838116600081815260056020908152604080832094871680845294825291829020805460ff191686151590811790915591519182527f17307eab39ab6107e8899845ad3d59bd9653f200f220920489ca2b5937696c31910160405180910390a3505050565b600061380f82670de0b6b3a7640000614c40565b600b54604051632c2e743960e21b81526001600160a01b03868116600483015292945091169063b0b9d0e4906024015b60206040518083038186803b15801561385757600080fd5b505afa15801561386b573d6000803e3d6000fd5b505050506040513d601f19601f8201168201806040525081019061388f9190614d5c565b82111561389e57506001610c1c565b50600092915050565b33600090815260176020908152604080832061ffff851684528252808320805460ff1916600190811790915560189092528220805483906138e9908490614b10565b9091555050602280546001019055600061390260225490565b905061390e3382613d23565b60008061391b600c613c57565b9050806001141561392b57600191505b6040805160608101825261ffff878116808352600081815260186020908152858220548186019081528815158688019081528a8452601983528784208751815461ffff19169716969096178655905160018087019190915590516002909501805460ff191695151595909517909455918152600c909152929092206003015490919060109060ff6201000090910416600781106139ca576139ca614acd565b0160008282546139da9190614b10565b9091555050805161ffff163361ffff88166000908152600c6020908152604091829020600301548582015183518a81526201000090920460ff16928201929092529182015285151560608201526001600160a01b0391909116907f8b90742d192553dd36d1a984b2c25cbddf3be145ce12b168a98258258cf9e1899060800160405180910390a35091949350505050565b613a76848484613065565b613a8284848484613d3d565b611f0d5760405162461bcd60e51b8152600401610d5090614d95565b6060604051806060016040528060248152602001614e6c60249139905090565b60606000613acb83613e4a565b600101905060008167ffffffffffffffff811115613aeb57613aeb614561565b6040519080825280601f01601f191660200182016040528015613b15576020820181803683370190505b5090508181016020015b600019016f181899199a1a9b1b9c1cb0b131b232b360811b600a86061a8153600a8504945084613b4e57613b53565b613b1f565b509392505050565b6000613b6f82670de0b6b3a7640000614c40565b600b546040516370a0823160e01b81526001600160a01b0386811660048301529294509116906370a082319060240161383f565b60006001600160e01b031982166380ac58cd60e01b1480613bd457506001600160e01b03198216635b5e139f60e01b145b80610c1c57506301ffc9a760e01b6001600160e01b0319831614610c1c565b613bfb613cd6565b611f0d84848484613f22565b600a54600160a01b900460ff166112165760405162461bcd60e51b815260206004820152601460248201527314185d5cd8589b194e881b9bdd081c185d5cd95960621b6044820152606401610d50565b600080824233601a54604051602001613c959392919092835260609190911b6bffffffffffffffffffffffff19166020830152603482015260540190565b6040516020818303038152906040528051906020012060001c613cb89190614de7565b601a80549192506000613cca83614b28565b90915550909392505050565b600a54600160a01b900460ff16156112165760405162461bcd60e51b815260206004820152601060248201526f14185d5cd8589b194e881c185d5cd95960821b6044820152606401610d50565b6110fc828260405180602001604052806000815250614056565b60006001600160a01b0384163b15613e3f57604051630a85bd0160e11b81526001600160a01b0385169063150b7a0290613d81903390899088908890600401614dfb565b602060405180830381600087803b158015613d9b57600080fd5b505af1925050508015613dcb575060408051601f3d908101601f19168201909252613dc891810190614e38565b60015b613e25573d808015613df9576040519150601f19603f3d011682016040523d82523d6000602084013e613dfe565b606091505b508051613e1d5760405162461bcd60e51b8152600401610d5090614d95565b805181602001fd5b6001600160e01b031916630a85bd0160e11b14905061305d565b506001949350505050565b60008072184f03e93ff9f4daa797ed6e38ed64bf6a1f0160401b8310613e895772184f03e93ff9f4daa797ed6e38ed64bf6a1f0160401b830492506040015b6d04ee2d6d415b85acef81000000008310613eb5576d04ee2d6d415b85acef8100000000830492506020015b662386f26fc100008310613ed357662386f26fc10000830492506010015b6305f5e1008310613eeb576305f5e100830492506008015b6127108310613eff57612710830492506004015b60648310613f11576064830492506002015b600a8310610c1c5760010192915050565b6001811115613f915760405162461bcd60e51b815260206004820152603560248201527f455243373231456e756d657261626c653a20636f6e7365637574697665207472604482015274185b9cd9995c9cc81b9bdd081cdd5c1c1bdc9d1959605a1b6064820152608401610d50565b816001600160a01b038516613fed57613fe881600880546000838152600960205260408120829055600182018355919091527ff3f7a9fe364faab93b216da50a3214154f22a0a2b415b23a84c8169e8b636ee30155565b614010565b836001600160a01b0316856001600160a01b031614614010576140108582614089565b6001600160a01b03841661402c5761402781614126565b61404f565b846001600160a01b0316846001600160a01b03161461404f5761404f84826141d5565b5050505050565b6140608383614219565b61406d6000848484613d3d565b610df15760405162461bcd60e51b8152600401610d5090614d95565b6000600161409684611406565b6140a09190614af9565b6000838152600760205260409020549091508082146140f3576001600160a01b03841660009081526006602090815260408083208584528252808320548484528184208190558352600790915290208190555b5060009182526007602090815260408084208490556001600160a01b039094168352600681528383209183525290812055565b60085460009061413890600190614af9565b6000838152600960205260408120546008805493945090928490811061416057614160614acd565b90600052602060002001549050806008838154811061418157614181614acd565b60009182526020808320909101929092558281526009909152604080822084905585825281205560088054806141b9576141b9614e55565b6001900381819060005260206000200160009055905550505050565b60006141e083611406565b6001600160a01b039093166000908152600660209081526040808320868452825280832085905593825260079052919091209190915550565b6001600160a01b03821661426f5760405162461bcd60e51b815260206004820181905260248201527f4552433732313a206d696e7420746f20746865207a65726f20616464726573736044820152606401610d50565b6000818152600260205260409020546001600160a01b0316156142d45760405162461bcd60e51b815260206004820152601c60248201527f4552433732313a20746f6b656e20616c7265616479206d696e746564000000006044820152606401610d50565b6142e2600083836001613bf3565b6000818152600260205260409020546001600160a01b0316156143475760405162461bcd60e51b815260206004820152601c60248201527f4552433732313a20746f6b656e20616c7265616479206d696e746564000000006044820152606401610d50565b6001600160a01b038216600081815260036020908152604080832080546001019055848352600290915280822080546001600160a01b0319168417905551839291907fddf252ad1be2c89b69c2b068fc378daa952ba7f163c4a11628f55a4df523b3ef908290a45050565b6040518060e001604052806007906020820280368337509192915050565b8280546143dc90614a92565b90600052602060002090601f0160209004810192826143fe5760008555614444565b82601f1061441757805160ff1916838001178555614444565b82800160010185558215614444579182015b82811115614444578251825591602001919060010190614429565b50614450929150614454565b5090565b5b808211156144505760008155600101614455565b6001600160e01b03198116811461126157600080fd5b60006020828403121561449157600080fd5b8135611fc381614469565b60005b838110156144b757818101518382015260200161449f565b83811115611f0d5750506000910152565b600081518084526144e081602086016020860161449c565b601f01601f19169290920160200192915050565b602081526000611fc360208301846144c8565b60006020828403121561451957600080fd5b5035919050565b80356001600160a01b0381168114612cdd57600080fd5b6000806040838503121561454a57600080fd5b61455383614520565b946020939093013593505050565b634e487b7160e01b600052604160045260246000fd5b604051601f8201601f1916810167ffffffffffffffff811182821017156145a0576145a0614561565b604052919050565b600060208083850312156145bb57600080fd5b823567ffffffffffffffff808211156145d357600080fd5b818501915085601f8301126145e757600080fd5b8135818111156145f9576145f9614561565b8060051b915061460a848301614577565b818152918301840191848101908884111561462457600080fd5b938501935b8385101561464257843582529385019390850190614629565b98975050505050505050565b803561ffff81168114612cdd57600080fd5b60006020828403121561467257600080fd5b611fc38261464e565b60008060006060848603121561469057600080fd5b61469984614520565b92506146a760208501614520565b9150604084013590509250925092565b6000602082840312156146c957600080fd5b611fc382614520565b60e08101818360005b60078110156146fa5781518352602092830192909101906001016146db565b50505092915050565b803560ff81168114612cdd57600080fd5b6000806040838503121561472757600080fd5b61473083614520565b915061473e60208401614703565b90509250929050565b6000806040838503121561475a57600080fd5b61476383614520565b91506020830135801515811461477857600080fd5b809150509250929050565b6000806040838503121561479657600080fd5b61479f83614520565b915061473e6020840161464e565b600080604083850312156147c057600080fd5b6145538361464e565b600067ffffffffffffffff8311156147e3576147e3614561565b6147f6601f8401601f1916602001614577565b905082815283838301111561480a57600080fd5b828260208301376000602084830101529392505050565b6000806000806080858703121561483757600080fd5b61484085614520565b935061484e60208601614520565b925060408501359150606085013567ffffffffffffffff81111561487157600080fd5b8501601f8101871361488257600080fd5b614891878235602084016147c9565b91505092959194509250565b600082601f8301126148ae57600080fd5b611fc3838335602085016147c9565b6000806000806000806000806000806000806101808d8f0312156148e057600080fd5b6148e98d61464e565b9b5067ffffffffffffffff60208e0135111561490457600080fd5b6149148e60208f01358f0161489d565b9a5067ffffffffffffffff60408e0135111561492f57600080fd5b61493f8e60408f01358f0161489d565b995061494d60608e01614703565b985061495b60808e01614703565b975061496960a08e01614703565b965061497760c08e0161464e565b955060e08d013594506101008d013593506101208d013592506101408d013591506149a56101608e01614703565b90509295989b509295989b509295989b565b600061ffff808f16835261018060208401526149d761018084018f6144c8565b83810360408501526149e9818f6144c8565b92505060ff8c16606084015260ff8b16608084015260ff8a1660a084015280891660c0840152508660e0830152856101008301528461012083015283610140830152614a3b61016083018460ff169052565b9d9c50505050505050505050505050565b60008060408385031215614a5f57600080fd5b614a6883614520565b915061473e60208401614520565b60008060408385031215614a8957600080fd5b61455383614703565b600181811c90821680614aa657607f821691505b60208210811415614ac757634e487b7160e01b600052602260045260246000fd5b50919050565b634e487b7160e01b600052603260045260246000fd5b634e487b7160e01b600052601160045260246000fd5b600082821015614b0b57614b0b614ae3565b500390565b60008219821115614b2357614b23614ae3565b500190565b6000600019821415614b3c57614b3c614ae3565b5060010190565b6020808252602d908201527f4552433732313a2063616c6c6572206973206e6f7420746f6b656e206f776e6560408201526c1c881bdc88185c1c1c9bdd9959609a1b606082015260800190565b634e487b7160e01b600052601260045260246000fd5b600082614bb557614bb5614b90565b500490565b60208082526023908201527f4f6e6c792063617264732066726f6d2073746f72652063616e206265206d696e6040820152621d195960ea1b606082015260800190565b60208082526023908201527f416c6c206f662074686573652063617264732068617665206265656e206d696e6040820152621d195960ea1b606082015260800190565b6000816000190483118215151615614c5a57614c5a614ae3565b500290565b60208082526021908201527f596f75206861766520616c7265616479206d696e7465642074686973207479706040820152606560f81b606082015260800190565b60008351614cb281846020880161449c565b835190830190614cc681836020880161449c565b01949350505050565b600061ffff80831681811415614ce757614ce7614ae3565b6001019392505050565b604081526000614d0460408301856144c8565b905061ffff831660208301529392505050565b60208082526025908201527f4552433732313a207472616e736665722066726f6d20696e636f72726563742060408201526437bbb732b960d91b606082015260800190565b600060208284031215614d6e57600080fd5b5051919050565b600060ff821660ff811415614d8c57614d8c614ae3565b60010192915050565b60208082526032908201527f4552433732313a207472616e7366657220746f206e6f6e20455243373231526560408201527131b2b4bb32b91034b6b83632b6b2b73a32b960711b606082015260800190565b600082614df657614df6614b90565b500690565b6001600160a01b0385811682528416602082015260408101839052608060608201819052600090614e2e908301846144c8565b9695505050505050565b600060208284031215614e4a57600080fd5b8151611fc381614469565b634e487b7160e01b600052603160045260246000fdfe68747470733a2f2f7a6f6f6d626965732e776f726c642f6e66742f6d6f6f6e6265616d2fa26469706673582212208236567e918fb851ebd6af26ed5b802f4a5661e12be2cdaa0ec7f7685bfba05664736f6c63430008090033",
  "immutableReferences": {},
  "source": "// SPDX-License-Identifier: MIT\npragma solidity 0.8.9;\n\nimport \"./ZoombiesUniverse.sol\";\nimport \"@openzeppelin/contracts/token/ERC721/ERC721.sol\";\nimport \"@openzeppelin/contracts/token/ERC721/extensions/ERC721Burnable.sol\";\nimport \"@openzeppelin/contracts/utils/Counters.sol\";\n\ncontract Zoombies is ERC721, ERC721Burnable, ZoombiesUniverse {\n    using Counters for Counters.Counter;\n\n    Counters.Counter private _tokenIdCounter;\n    string constant private _baseTokenURI = \"https://zoombies.world/nft/moonbeam/\";\n\n    //Tracking affiliate sponsors\n    mapping(address => address) public sponsors; // 1 sponsor have many affiliates, but only 1 sponsor, returns sponsor\n\n    //Track the timestamps for users to get their daily pull\n    mapping(address => uint256) private timeToCardsPull; //address to timestamp\n\n    //Tracking booster pack count ownership. These are NOT tokens, Player can mint a random NFT\n    mapping (address => uint256) public boosterCreditsOwned;\n    mapping (address => bool) public authorizedContracts; // external service contracts to manage Diamond Mint\n    mapping (address => uint256) public totalSacrificed; // total NFTs sacrificed by address\n    uint public weiCostOfBooster = 1000000000000000000; //1 GLMR\n    uint256 constant public zoomValuePerBoosterCredit = 500; // for mint, and reward\n    uint256 public totalBoostersRewarded = 0;\n\n    //Event Logs\n    event LogCardMinted(address indexed buyer, uint tokenId, uint8 rarity, uint32 indexed cardTypeId, uint editionNumber, bool isFoil);\n    event LogPackOpened(address indexed buyer, uint8 rarity);\n    event LogSponsorLinked(address sponsor, address affiliate);\n    event LogSponsorReward(address sponsor, address affiliate, uint zoomReward);\n    event LogDailyReward(address player, uint newBoosterBalance);\n    event LogRewardBoosters(address winner, uint boostersAwarded);\n    event LogSacrificeNFT(address owner, uint256 tokenId, uint16 cardTypeId, uint256 zoomGained, uint256 totalSacrificed);\n    event LogContractAuthorized(address newZoombiesService, bool isApproved);\n    event LogCostOfBoosterUpdated(uint newCost);\n\n    constructor(address _zoomTokenContract)\n    ERC721(\"Zoombies\", \"Zoombie\") {\n        require(_zoomTokenContract != address(0x0));\n        zoomTokenContract = _zoomTokenContract;\n    }\n\n    function buyCard(uint16 _cardTypeId) external payable {\n        require(allCardTypes[_cardTypeId].cardTypeId != 0, \"Card type ID does not exist\");\n        require(allCardTypes[_cardTypeId].notStoreOrBonus == 0, \"Only cards from store can be minted\");\n        require(block.timestamp >= storeReleaseTime[_cardTypeId], \"Card not released from shop\");\n        require(allCardTypes[_cardTypeId].totalAvailable >= (cardTypeToEdition[_cardTypeId]+1),\n        \"All of these cards have been minted\");\n        require(msg.value >= allCardTypes[_cardTypeId].weiCost, \"You have not paid enough GLMR to mint this type\");\n\n        if(msg.value < allCardTypes[_cardTypeId].weiCost*3) {\n            require(cardTypesOwned[_msgSender()][_cardTypeId] == false, \"You have already minted this type\");\n            if(isZoomScoreUnder(_msgSender(), allCardTypes[_cardTypeId].unlockZoom)) {\n                revert(\"ZoomScore not enough to unlock price, use 3x FastPass\");\n            }\n        } //they fast passed this block\n\n        //Let the world award our friend\n        awardZoom(_msgSender(), allCardTypes[_cardTypeId].buyZoom);\n        //reward the sponsor\n        rewardAffiliate(allCardTypes[_cardTypeId].buyZoom);\n\n        //ALL CLEAR ???????? mint new card\n        mintZoombieNFT(_cardTypeId);\n    }\n\n    function getFreeCard(uint16 _cardTypeId) external payable {\n        require(allCardTypes[_cardTypeId].cardTypeId != 0, \"Card type ID does not exist\");\n        require(allCardTypes[_cardTypeId].weiCost == 0, \"You are attempting to mint a paid type\");\n        require(allCardTypes[_cardTypeId].notStoreOrBonus == 0, \"Only cards from store can be minted\");\n        require(block.timestamp >= storeReleaseTime[_cardTypeId], \"Card not released from shop\");\n        require(cardTypesOwned[_msgSender()][_cardTypeId] == false, \"You have already minted this type\");\n        require(allCardTypes[_cardTypeId].totalAvailable >= (cardTypeToEdition[_cardTypeId]+1),\n        \"All of these cards have been minted\");\n\n        //Fast pass OR ZoomScore + Zoom burn to mint\n        uint zoomCost = 3 * allCardTypes[_cardTypeId].unlockZoom * 1e18;\n        zoomCost = zoomCost/100000;\n         if(msg.value < zoomCost) { // fast pass check\n            if(isZoomScoreUnder(_msgSender(), allCardTypes[_cardTypeId].unlockZoom)) {\n                revert(\"ZoomScore too low\");\n            }else{                  // they unlocked by ZoomScore\n                if(isZoomBalanceUnder(_msgSender(), allCardTypes[_cardTypeId].buyZoom)){                  \n                    revert(\"Not enough ZOOM in wallet\");\n                }else{              // burn zoom to mint NFT\n                    burnZoom(_msgSender(), allCardTypes[_cardTypeId].buyZoom);\n                }\n             }\n        } // they fast passed this block\n\n        //ALL CLEAR ???????? claim and mint new card\n        mintZoombieNFT(_cardTypeId);       \n    }\n\n    function sacrificeNFTs(uint256[] memory _tokenIds) external {\n\n        require(_tokenIds.length <= 256, \"List of tokens to sacrifice must be less than 257 at a time\");\n        \n        uint256 sacZoom = 0;\n        for (uint i=0; i < _tokenIds.length; i++) {\n            burn(_tokenIds[i]); //ensure owner before we roll other data\n\n            uint16 _tempCTiD = nfts[_tokenIds[i]].cardTypeId;\n            tokensByRarity[allCardTypes[_tempCTiD].rarity] -= 1;\n            sacZoom += allCardTypes[_tempCTiD].sacrificeZoom;\n            delete (nfts[_tokenIds[i]]);\n            totalSacrificed[_msgSender()] += 1;\n            emit LogSacrificeNFT(_msgSender(), _tokenIds[i], _tempCTiD, allCardTypes[_tempCTiD].sacrificeZoom, totalSacrificed[_msgSender()]);\n        }\n        awardZoom(_msgSender(), sacZoom);\n        rewardAffiliate(sacZoom);\n    }\n\n    //every 8 hours, the address can get 1 free booster credit\n    function getBonusBoosters() external {\n        if(block.timestamp < getTimeToDailyBonus(_msgSender())){\n            revert(\"Too early to claim next bonus\");\n        }\n\n        //Stop re-entrancy, update the lastpull value\n        timeToCardsPull[_msgSender()] = block.timestamp + 8 hours;\n\n        // add the boosters and emit event\n        boosterCreditsOwned[_msgSender()] += 1;\n        emit LogDailyReward(_msgSender(), boosterCreditsOwned[_msgSender()]);\n    }\n\n    function linkMySponsor(address _mySponsor) external {\n        //All clear?  stop re-entrancy, set the association\n        sponsors[_msgSender()] = _mySponsor;\n\n        //Mint the Platinum Sponsor Card\n        bool tryAgain = true;\n        uint256 _newTokenID;\n        while (tryAgain) {\n            _newTokenID = pullCard(2);\n            if (_newTokenID > 0) { //got a card\n                 tryAgain = false;\n             }\n        }\n\n        emit LogSponsorLinked(_mySponsor, _msgSender());\n    }\n\n    function buyBoosterCredits(uint _amount) external payable returns(bool) {\n        require(msg.value == (weiCostOfBooster * _amount), \"Not enough GLMR to buy this many Booster Credits\");\n\n        //All good increase the number owned\n        boosterCreditsOwned[_msgSender()] += _amount;\n\n\n        //Award zoom for booster\n        uint256 zoomBonus = zoomValuePerBoosterCredit + 200; //bonus for buying a booster\n        awardZoom(_msgSender(), (zoomBonus * _amount));\n        rewardAffiliate(zoomBonus * _amount);\n\n        return true;\n    }\n\n    function buyBoosterAndMintNFT() external payable returns(bool) {\n        require(msg.value == weiCostOfBooster, \"Not enough GLMR to buy a Booster\");\n\n        //Award zoom per pack\n        awardZoom(_msgSender(), 200);   //net difference buying a booster and minting\n        rewardAffiliate(200);\n\n        //Pull the card\n        uint8 rarity = getRarity(0);\n        bool tryAgain = true;\n        uint256 _newTokenID;\n        while (tryAgain) {\n            _newTokenID = pullCard(rarity);\n            if (_newTokenID > 0) { //got a card\n                tryAgain = false;\n            }\n        }\n\n        //Send a log event\n        emit LogPackOpened(_msgSender(), rarity);\n        return true;\n    }\n\n    function mintBoosterNFT(uint zoomWager) external returns(bool) {\n        require(boosterCreditsOwned[_msgSender()] > 0, \"No Booster credits owned\");\n        require(zoomWager == 0 || zoomWager >= 1000000 && zoomWager <= 20000000, \"Wager must be 0 or between than 1-20M\");\n        //STOP re-entrancy , decrement number of credits\n        boosterCreditsOwned[_msgSender()] -= 1;\n\n        // we don't check above here for balance, this will die if no ZOOM\n        burnZoom(_msgSender(), zoomValuePerBoosterCredit); //ether units\n\n        //Pull the card\n        uint8 rarity = getRarity(zoomWager);\n        bool tryAgain = true;\n        uint256 _newTokenID;\n        while (tryAgain) {\n            _newTokenID = pullCard(rarity);\n            if (_newTokenID > 0) { //got a card\n                tryAgain = false;\n            }\n        }\n        //Send a log event\n        emit LogPackOpened(_msgSender(), rarity);\n        return true;\n    }\n\n    function awardBoosterCredits(address _winner, uint8 _amount) external onlyOwner returns(bool) {\n\n        totalBoostersRewarded += _amount;\n        boosterCreditsOwned[_winner] += _amount;\n        emit LogRewardBoosters(_winner, _amount);\n        return true;\n    }\n\n    function supportsInterface(bytes4 interfaceId)\n        public\n        view\n        override(ERC721, ERC721Enumerable)\n        returns (bool)\n    {\n        return super.supportsInterface(interfaceId);\n    }\n\n    function getTimeToDailyBonus(address _player) public view returns(uint256 timeStamp) {\n\n        //check if address exists\n        if (timeToCardsPull[_player] == 0) {\n            return block.timestamp - 2 seconds;\n        }else {\n            return timeToCardsPull[_player];\n        }\n    }\n\n    function mintDiamond(address _receiverWallet) external {\n        require(authorizedContracts[_msgSender()] == true, \"Not authorized to mint\");    \n         bool tryAgain = true;\n         uint256 _newTokenID;\n         while (tryAgain) {\n             _newTokenID = pullCard(1);\n             if (_newTokenID > 0) { //got a card\n                 tryAgain = false;\n             }\n         }       \n         //give to the player\n         _transfer(_msgSender(), _receiverWallet, _newTokenID);\n         emit LogPackOpened(_receiverWallet, 1);\n    }\n\n    /**\n     * Withdraw balance to wallet\n     */\n    function withdraw() public onlyOwner returns(bool) {\n        payable(_msgSender()).transfer(address(this).balance);\n        return true;\n    }\n    \n    function setAuthorizedContract(address _newZoombiesService, bool _isAuthorized) external onlyOwner {\n        require(_newZoombiesService != address(0x0));\n        authorizedContracts[_newZoombiesService] = _isAuthorized;\n        emit LogContractAuthorized(_newZoombiesService, _isAuthorized);\n    }\n\n    function updateCostOfBooster(uint _newWeiCost) external onlyOwner {\n        require(_newWeiCost > 0);\n        weiCostOfBooster = _newWeiCost;\n        emit LogCostOfBoosterUpdated(_newWeiCost);\n    }\n\n    function _baseURI() internal view virtual override returns (string memory) {\n        return _baseTokenURI;\n    }\n\n    function _beforeTokenTransfer(address from, address to, uint256 tokenId, uint256 batchSize)\n        internal\n        whenNotPaused\n        override(ERC721, ERC721Enumerable)\n    {\n        super._beforeTokenTransfer(from, to, tokenId, batchSize);\n    }\n\n//Private\n\n    // balance is lower than test, return true\n    function isZoomBalanceNotEnough(uint256 _valueToTest) private view returns (bool) {\n        if(ZoomToken(zoomTokenContract).balanceOf(_msgSender()) < _valueToTest){\n            return true;\n        }\n        return false;\n    }\n\n    function pullCard(uint8 _rarity) private returns (uint256 newTokenId) { \n        //Get a random number for the card to pull\n        uint256 rand = selectRandom(allBoosterCardIds[_rarity].length); \n        //hit up the cardTypes\n        uint16 _pulledId = allBoosterCardIds[_rarity][rand];\n        if\n            (allCardTypes[_pulledId].totalAvailable > 0 && //test for limited edition boosters\n            (cardTypeToEdition[_pulledId]+1) > allCardTypes[_pulledId].totalAvailable) {\n                return 0;\n            }\n\n        //Give the player this cardType\n        uint256 _newTokenID = mintZoombieNFT(_pulledId);\n        return _newTokenID;\n    }\n\n    function mintZoombieNFT(uint16 _cardTypeId) private returns(uint256 newTokenId){\n        //Stop re-entrancy, Track the type of card puchased for this owner, so they cant buy again\n        cardTypesOwned[_msgSender()][_cardTypeId] = true;\n\n        cardTypeToEdition[_cardTypeId] += 1;\n\n        _tokenIdCounter.increment();\n        uint256 _newTokenId = _tokenIdCounter.current();\n\n        //now mint the NFT\n        _safeMint(_msgSender(), _newTokenId);\n\n        bool isThisFoil = false;\n        uint256 rand = selectRandom(12);\n        if(rand == 1) {\n            isThisFoil = true;\n        }\n\n        //Create the NFT data on chain!\n        NFTdata memory _tempCard = NFTdata({\n            cardTypeId:_cardTypeId,\n            editionNumber:cardTypeToEdition[_cardTypeId],\n            isFoil:isThisFoil\n        });\n        nfts[_newTokenId] = _tempCard;\n\n        tokensByRarity[allCardTypes[_cardTypeId].rarity] += 1;\n\n        emit LogCardMinted(_msgSender(), _newTokenId, allCardTypes[_cardTypeId].rarity, _tempCard.cardTypeId, _tempCard.editionNumber, isThisFoil);\n        return _newTokenId;\n    }\n\n    /**\n     * We always pay our affiliates 20% of the zoom commission\n     */\n    function rewardAffiliate(uint _totalZoom) private {\n        //first check if the caller has a sponsor\n        if (sponsors[_msgSender()] != address(0)) {\n            uint reward = _totalZoom / 5;\n            if (reward == 0) {\n                reward = 1;\n            }\n            awardZoom(sponsors[_msgSender()], reward);\n            emit LogSponsorReward(sponsors[_msgSender()], _msgSender(), reward);\n        }\n    }\n}\n",
  "sourcePath": "/Users/ryanprice/MyApplications/Solidity/Zoombies/contracts/Zoombies.sol",
  "compiler": {
    "name": "solc",
    "version": "0.8.9+commit.e5eed63a.Emscripten.clang"
  },
  "schemaVersion": "3.4.13",
  "updatedAt": "2023-04-15T03:33:32.522Z",
  "networkType": "ethereum",
  "devdoc": {
    "kind": "dev",
    "methods": {
      "approve(address,uint256)": {
        "details": "See {IERC721-approve}."
      },
      "balanceOf(address)": {
        "details": "See {IERC721-balanceOf}."
      },
      "burn(uint256)": {
        "details": "Burns `tokenId`. See {ERC721-_burn}. Requirements: - The caller must own `tokenId` or be an approved operator."
      },
      "getApproved(uint256)": {
        "details": "See {IERC721-getApproved}."
      },
      "isApprovedForAll(address,address)": {
        "details": "See {IERC721-isApprovedForAll}."
      },
      "name()": {
        "details": "See {IERC721Metadata-name}."
      },
      "owner()": {
        "details": "Returns the address of the current owner."
      },
      "ownerOf(uint256)": {
        "details": "See {IERC721-ownerOf}."
      },
      "paused()": {
        "details": "Returns true if the contract is paused, and false otherwise."
      },
      "renounceOwnership()": {
        "details": "Leaves the contract without owner. It will not be possible to call `onlyOwner` functions anymore. Can only be called by the current owner. NOTE: Renouncing ownership will leave the contract without an owner, thereby removing any functionality that is only available to the owner."
      },
      "safeTransferFrom(address,address,uint256)": {
        "details": "See {IERC721-safeTransferFrom}."
      },
      "safeTransferFrom(address,address,uint256,bytes)": {
        "details": "See {IERC721-safeTransferFrom}."
      },
      "setApprovalForAll(address,bool)": {
        "details": "See {IERC721-setApprovalForAll}."
      },
      "symbol()": {
        "details": "See {IERC721Metadata-symbol}."
      },
      "tokenByIndex(uint256)": {
        "details": "See {IERC721Enumerable-tokenByIndex}."
      },
      "tokenOfOwnerByIndex(address,uint256)": {
        "details": "See {IERC721Enumerable-tokenOfOwnerByIndex}."
      },
      "tokenURI(uint256)": {
        "details": "See {IERC721Metadata-tokenURI}."
      },
      "totalSupply()": {
        "details": "See {IERC721Enumerable-totalSupply}."
      },
      "transferFrom(address,address,uint256)": {
        "details": "See {IERC721-transferFrom}."
      },
      "transferOwnership(address)": {
        "details": "Transfers ownership of the contract to a new account (`newOwner`). Can only be called by the current owner."
      }
    },
    "version": 1
  },
  "userdoc": {
    "kind": "user",
    "methods": {
      "withdraw()": {
        "notice": "Withdraw balance to wallet"
      }
    },
    "version": 1
  }
}